:100000000C942A000C9447000C9447000C94470071
:100010000C9447000C9447000C9447000C9439153D
:100020000C9447000C9406150C942C140C94F913A2
:100030000C9447000C9447000C9447000C94470024
:100040000C9447000C9447000C9447000C94470014
:100050000C94470011241FBECFE5D8E0DEBFCDBF12
:1000600010E0A0E6B0E0EAE7FFE202C005900D92E2
:10007000AC38B107D9F710E0ACE8B0E001C01D9290
:10008000A539B107E1F70E94A3050C94BB170C94A6
:100090000000EF92FF920F931F937B018C0120E0F1
:1000A00030E040E05FE40E94490388238CF0C801FF
:1000B000B70120E030E040E05FE40E94C1010E940F
:1000C000A9039B01AC01205030404040504806C07D
:1000D000C801B7010E94A9039B01AC01B901CA0183
:1000E0001F910F91FF90EF900895A0E0B0E0EBE733
:1000F000F0E00C948417DC012B01FA019C91923002
:1001000008F439C1EB018881823008F433C194309E
:1001100069F4843009F02FC111969C91119789815F
:10012000981709F428C1A0E6B0E025C1843009F48D
:1001300021C18230A9F4923009F01DC19A01AD01AC
:1001400088E0EA010990AE01E90109929E0181501F
:10015000C1F7E201898111969C918923818308C1AD
:10016000923009F407C112962D903C901397EB0141
:100170008A819B811496AD90BD90CD90DC901797AD
:10018000EC80FD800E811F819101281B390BB90184
:1001900037FF04C066277727621B730B6032710537
:1001A0000CF061C0121613066CF537014801062EDB
:1001B00004C096948794779467940A94D2F721E0C8
:1001C00030E040E050E004C0220F331F441F551FB1
:1001D0006A95D2F721503040404050402E213F21B7
:1001E00040235123211531054105510521F021E01E
:1001F00030E040E050E079018A01E628F72808293C
:1002000019293CC0232BD1F1260E371E350146019A
:10021000062E04C096948794779467940A94D2F734
:1002200021E030E040E050E004C0220F331F441FC3
:10023000551F6A95D2F721503040404050402A2146
:100240003B214C215D21211531054105510521F04E
:1002500021E030E040E050E059016A01A628B728CB
:10026000C828D9280BC0821593052CF01C01AA249C
:10027000BB24650103C0EE24FF24870111969C91E5
:10028000D20111968C91981709F445C0992339F041
:10029000A80197012A193B094C095D0906C0A6016E
:1002A00095012E193F09400B510B57FD08C01182D3
:1002B0003382228224833583468357831DC081E0A5
:1002C00081833382228288279927DC01821B930B4A
:1002D000A40BB50B84839583A683B7830DC0220F2F
:1002E000331F441F551F24833583468357838281E0
:1002F000938101979383828324813581468157813D
:10030000DA01C9010197A109B1098F5F9F4FAF4F72
:10031000BF4328F30BC0918333822282EA0CFB1C7B
:100320000C1D1D1DE482F5820683178383E0808304
:10033000248135814681578157FF1AC0C901AA27F8
:1003400097FDA095BA2F81709070A070B0705695EF
:10035000479537952795822B932BA42BB52B848318
:100360009583A683B7838281938101969383828349
:10037000DF0101C0D201CD01CDB7DEB7E2E10C94BF
:10038000A017A0E2B0E0E7ECF1E00C9490176983CD
:100390007A838B839C832D833E834F835887E9E048
:1003A000EE2EF12CEC0EFD1ECE010196B7010E943F
:1003B000D2048E010F5E1F4FCE010596B8010E9438
:1003C000D2048A8991E089278A8BC701B801AE01DE
:1003D000475E5F4F0E9475000E94FD03A096E6E015
:1003E0000C94AC17A0E2B0E0E8EFF1E00C949017A9
:1003F00069837A838B839C832D833E834F835887C5
:10040000F9E0EF2EF12CEC0EFD1ECE010196B701A6
:100410000E94D2048E010F5E1F4FCE010596B801D7
:100420000E94D204C701B801AE01475E5F4F0E942F
:1004300075000E94FD03A096E6E00C94AC17A0E2C4
:10044000B0E0E5E2F2E00C94841769837A838B8351
:100450009C832D833E834F835887CE010196BE0136
:10046000675F7F4F0E94D204CE010596BE016F5E8A
:100470007F4F0E94D2049985923088F0898982301A
:10048000C8F0943019F4823051F404C0843029F457
:10049000923081F480E690E0C6C0923049F420E0CA
:1004A0009A858A89981321E02A87CE010996BBC0D4
:1004B000823049F420E09A858A89981321E02A8BBA
:1004C000CE014196B0C02D843E844F8458886D88FB
:1004D0007E888F88988CEE24FF248701AA24BB2471
:1004E000650140E050E060E070E0E0E0F0E0C10174
:1004F00081709070892BE9F0E60CF71C081D191D1E
:100500009A01AB012A0D3B1D4C1D5D1D80E090E062
:10051000A0E0B0E0E614F7040805190520F481E036
:1005200090E0A0E0B0E0BA01A901480F591F6A1F8E
:100530007B1FAA0CBB1CCC1CDD1C97FE08C081E0F5
:1005400090E0A0E0B0E0A82AB92ACA2ADB2A3196B6
:10055000E032F10549F0660C771C881C991C569412
:10056000479437942794C3CFFA85EA892B893C892D
:100570008B859C85280F391F2E5F3F4F17C0CA01FE
:1005800081709070892B61F016950795F794E79428
:1005900080E090E0A0E0B0E8E82AF92A0A2B1B2BC3
:1005A00076956795579547952F5F3F4F77FDE7CF36
:1005B0000CC0440F551F661F771F17FD4160EE0CDE
:1005C000FF1C001F111F21503040403090E05907A0
:1005D00090E0690790E4790760F32B8F3C8FDB0193
:1005E000CA018F779070A070B07080349105A1051A
:1005F000B10561F447FD0AC0E114F10401051105DC
:1006000029F0405C5F4F6F4F7F4F40781A8EFE1786
:1006100011F081E08A8F4D8F5E8F6F8F78A383E01A
:10062000898FCE0149960E94FD03A096E2E10C94C9
:10063000A017A8E1B0E0EFE1F3E00C949017698314
:100640007A838B839C832D833E834F83588789E0F5
:10065000E82EF12CEC0EFD1ECE010196B7010E9492
:10066000D2048E010F5E1F4FCE010596B8010E9485
:10067000D2048985823040F08989823028F0C70110
:10068000B8010E944A0501C08FEF6896E6E00C941D
:10069000AC17A8E1B0E0EFE4F3E00C9490176983A5
:1006A0007A838B839C832D833E834F83588789E095
:1006B000E82EF12CEC0EFD1ECE010196B7010E9432
:1006C000D2048E010F5E1F4FCE010596B8010E9425
:1006D000D2048985823040F08989823028F0C701B0
:1006E000B8010E944A0501C08FEF6896E6E00C94BD
:1006F000AC17A8E1B0E0EFE7F3E00C949017698342
:100700007A838B839C832D833E834F83588789E034
:10071000E82EF12CEC0EFD1ECE010196B7010E94D1
:10072000D2048E010F5E1F4FCE010596B8010E94C4
:10073000D2048985823040F08989823028F0C7014F
:10074000B8010E944A0501C081E06896E6E00C9479
:10075000AC17ACE0B0E0EFEAF3E00C9494176983D7
:100760007A838B839C83CE010196BE016B5F7F4FA2
:100770000E94D2048D81823061F1823050F1843048
:1007800021F48E81882351F12EC02F81388537FDC9
:1007900020C06E812F3131051CF06623F9F023C093
:1007A0008EE190E0821B930B29853A854B855C8511
:1007B00004C056954795379527958A95D2F76623B5
:1007C000B1F050954095309521953F4F4F4F5F4F79
:1007D0000EC020E030E040E050E009C02FEF3FEFD6
:1007E0004FEF5FE704C020E030E040E050E8B9019F
:1007F000CA012C96E2E00C94B017DF92EF92FF92C0
:100800000F931F93FC01E480F58006811781D1804E
:100810008081823048F480E090E0A0E1B0E0E82AF6
:10082000F92A0A2B1B2BA5C0843009F49FC0823003
:1008300021F4EE24FF24870105C0E114F104010531
:10084000110519F4E0E0F0E096C0628173819FEF3A
:10085000623879070CF05BC022E83FEF261B370BAC
:100860002A3131052CF020E030E040E050E02AC091
:10087000B801A701022E04C0769567955795479554
:100880000A94D2F781E090E0A0E0B0E004C0880FC5
:10089000991FAA1FBB1F2A95D2F70197A109B10979
:1008A0008E219F21A023B1230097A105B10521F03E
:1008B00081E090E0A0E0B0E09A01AB01282B392B59
:1008C0004A2B5B2BDA01C9018F779070A070B07052
:1008D00080349105A105B10539F427FF09C0205CDA
:1008E0003F4F4F4F5F4F04C0215C3F4F4F4F5F4F13
:1008F000E0E0F0E02030A0E03A07A0E04A07A0E402
:100900005A0710F0E1E0F0E079018A0127C0603871
:10091000710564F5FB01E158FF4FD801C7018F77DE
:100920009070A070B07080349105A105B10539F4C4
:10093000E7FE0DC080E490E0A0E0B0E004C08FE3EB
:1009400090E0A0E0B0E0E80EF91E0A1F1B1F17FFA1
:1009500005C016950795F794E794319687E01695AC
:100960000795F794E7948A95D1F705C0EE24FF2404
:100970008701EFEFF0E06E2F679566276795902F60
:100980009F77D794DD24D7948E2F8695492F462BB9
:10099000582F5D29B701CA011F910F91FF90EF9069
:1009A000DF900895FC01DB01408151812281622F9B
:1009B0006F7770E0221F2227221F9381892F880FD3
:1009C000822B282F30E0991F9927991F11969C930D
:1009D000119721153105A9F54115510561057105DD
:1009E00011F482E037C082E89FEF13969C938E93B8
:1009F00012979A01AB0167E0220F331F441F551F66
:100A00006A95D1F783E08C930DC0220F331F441FEA
:100A1000551F12968D919C911397019713969C9355
:100A20008E931297203080E0380780E0480780E4FA
:100A3000580758F314962D933D934D935C93179755
:100A400008952F3F310579F4411551056105710570
:100A500019F484E08C93089564FF03C081E08C93C3
:100A600012C01C9210C02F57304013963C932E9307
:100A7000129783E08C9387E0440F551F661F771F02
:100A80008A95D1F7706414964D935D936D937C9322
:100A9000179708951F93DC01FB019C91923008F495
:100AA00047C08081823008F443C0943051F41196DD
:100AB0001C91843099F58181682F70E0611B710968
:100AC0003FC0843021F0923031F48230B9F181811D
:100AD000882389F12DC011961C9111978230F1F075
:100AE00081811817D9F412962D913C911397828128
:100AF00093818217930794F028173907BCF0149656
:100B00008D919D910D90BC91A02D248135814681C0
:100B10005781281739074A075B0718F4112341F05A
:100B20000AC082179307A407B50740F4112319F0F0
:100B300061E070E005C06FEF7FEF02C060E070E041
:100B4000CB011F910895DF93CF93CDB7DEB7AF9759
:100B50000FB6F894DEBF0FBECDBF9E012E5F3F4F94
:100B60003D8F2C8F8BE790E09F8F8E8F95E098A321
:100B7000EE8DFF8D00802E8D3F8D2F5F3F4F3F8F7D
:100B80002E8FEC8DFD8D00822C8D3D8D2F5F3F4F84
:100B90003D8F2C8F38A1315038A388A1882341F78D
:100BA000FE013796FAA3E9A324E730E03CA32BA388
:100BB00037E03DA3EBA1FCA100802BA13CA12F5F5E
:100BC0003F4F3CA32BA3E9A1FAA1008229A13AA19E
:100BD0002F5F3F4F3AA329A33DA131503DA38DA1E3
:100BE000882341F7CE0107960E942416CE01029673
:100BF0000E946C150E948D090E946409EFE5F0E0E7
:100C000080818068808381E00E94C6160E9403175D
:100C10008230E1F780918E000E94C61680918E008E
:100C2000E82FF0E0FB8FEA8F2A8D3B8D22303105D3
:100C3000E9F18A8D9B8D8330910554F4EA8DFB8D0B
:100C40003097C1F02A8D3B8D21303105B1F0DBCFDB
:100C50008A8D9B8D8430910509F441C0EA8DFB8D0E
:100C6000E430F10584F12A8D3B8D2530310509F4FE
:100C70006BC0C9CF0E946F08C6CF0E940317833094
:100C8000E1F784E00E94C6160E94031789838981D8
:100C90008B3221F482E080938E00B5CF89818D3232
:100CA00009F0B1CF83E080938E00ADCF0E94A10701
:100CB000813031F484E080938E0010928C00A3CFB9
:100CC0000E948C07A0CF0E94A107813029F41092C6
:100CD0008E0010928C0097CF0E948C0794CF81E0F9
:100CE00080938D00CE010E969FA38EA3EEE6F0E0DA
:100CF000F9A7E8A7F6E0FAA7E8A5F9A5008028A5D6
:100D000039A52F5F3F4F39A728A7EEA1FFA1008289
:100D10002EA13FA12F5F3F4F3FA32EA33AA53150F5
:100D20003AA78AA5882341F789ED96E00E94F4143A
:100D3000CE010E960E945F1480918D008130E1F308
:100D400081E080938E005FCF81E080938D00FE0173
:100D50007496FCA7EBA728E630E03EA72DA736E067
:100D60003FA7EDA5FEA500802DA53EA52F5F3F4F17
:100D70003EA72DA7EBA5FCA500822BA53CA52F5FC8
:100D80003F4F3CA72BA73FA531503FA78FA58823F6
:100D900041F78EE397E00E94F414CE0144960E943E
:100DA0005F1480918D008130E1F381E080938E00AB
:100DB0002ACFDF93CF93CDB7DEB72B970FB6F8943A
:100DC000DEBF0FBECDBF80918F008F5F80938F00FD
:100DD00080918F00813049F5CE01019698878F83ED
:100DE000E0E8F0E0FA87E987F6E0FB87E985FA8535
:100DF000008089859A8501969A878987EF81F88591
:100E000000828F819885019698878F839B8591506A
:100E10009B87EB85EE2351F7CE0101960E945F146C
:100E200081E064E60E94A80920C080918F0086308E
:100E300029F480E060E00E94A80917C080918F002B
:100E4000873029F482E064E60E94A8090EC08091F0
:100E50008F008C3051F480E060E00E94A80910926D
:100E60008F0010928D000E94D1142B960FB6F8942B
:100E7000DEBF0FBECDBFCF91DF910895DF93CF933B
:100E8000CDB7DEB72B970FB6F894DEBF0FBECDBF40
:100E9000809190008F5F80939000809190008130CE
:100EA00031F5CE01019698878F83E6E8F0E0FA8766
:100EB000E987F6E0FB87E985FA85008089859A85D0
:100EC00001969A878987EF81F88500828F819885BE
:100ED000019698878F839B8591509B87EB85EE23A6
:100EE00051F7CE0101960E945F140E94750980910E
:100EF0009000873041F40E94810910929000109276
:100F00008D000E94D1142B960FB6F894DEBF0FBE51
:100F1000CDBFCF91DF910895DF93CF93CDB7DEB7EB
:100F200080918C008F5F80938C0080918C00833047
:100F300029F485E080938E0010928C00CF91DF9190
:100F400008950F931F93DF93CF93CDB7DEB76A97C2
:100F50000FB6F894DEBF0FBECDBF81E0888B1F8631
:100F6000AEC00E9403178330E1F784E00E94C616EA
:100F70008F85082F10E00E940317282FCE0141967D
:100F8000FC01E00FF11F20838F85882F90E00196F0
:100F9000AC018F85882F90E09E012A5E3F4F280F7D
:100FA000391FCA01B9010E94410A80E090E0A0E720
:100FB000B1E48B879C87AD87BE876B857C858D85EB
:100FC0009E8520E030E04AEF54E40E941F02DC01DD
:100FD000CB018F839887A987BA876F8178858985A8
:100FE0009A8520E030E040E85FE30E94790388239F
:100FF0002CF481E090E09E838D833FC06F817885E3
:1010000089859A8520E03FEF4FE757E40E94190356
:1010100018164CF56B857C858D859E8520E030E02B
:1010200040E251E40E941F02DC01CB01BC01CD0172
:101030000E944900DC01CB019E838D830FC088ECA8
:1010400090E09C838B838B819C810197F1F79C833B
:101050008B838D819E8101979E838D838D819E815F
:10106000009769F714C06F81788589859A850E94F9
:101070004900DC01CB019E838D838D819E819A8303
:10108000898389819A810197F1F79A8389838F8572
:10109000282F30E0CE014696FC01E20FF31F40817D
:1010A0008F85282F30E0CE014196FC01E20FF31F1F
:1010B0008081481709F0188A8F858F5F8F878F8509
:1010C000853008F44ECF88896A960FB6F894DEBF53
:1010D0000FBECDBFCF91DF911F910F9108950F9358
:1010E0001F93DF93CF93CDB7DEB76B970FB6F8940E
:1010F000DEBF0FBECDBF198A188A3FC00E940317FA
:101100008330E1F784E00E94C6168889082F10E03A
:101110000E940317282FCE014296FC01E00FF11F19
:1011200020830E9403178330E1F784E00E94C616F3
:101130008889082F10E00E940317282FCE014796B8
:10114000FC01E00FF11F20838889282F30E0CE01B9
:101150004796FC01E20FF31F40818889282F30E079
:10116000CE014296FC01E20FF31F8081481711F077
:1011700081E0898B88898F5F888B8889853008F426
:10118000BDCF8989882309F091C01F8687C08F85CC
:10119000882F90E00196AC018F85282F30E0CE019A
:1011A0004296FC01E20FF31F2081CA01622F0E94C8
:1011B000000A80E090E0A0E7B1E48B879C87AD87D0
:1011C000BE876B857C858D859E8520E030E04AEF6B
:1011D00054E40E941F02DC01CB018F839887A9870A
:1011E000BA876F81788589859A8520E030E040E86C
:1011F0005FE30E94790388232CF481E090E09E83D2
:101200008D833FC06F81788589859A8520E03FEF87
:101210004FE757E40E94190318164CF56B857C853F
:101220008D859E8520E030E040E251E40E941F025F
:10123000DC01CB01BC01CD010E944900DC01CB01E6
:101240009E838D830FC088EC90E09C838B838B8181
:101250009C810197F1F79C838B838D819E810197FF
:101260009E838D838D819E81009769F714C06F8165
:10127000788589859A850E944900DC01CB019E838F
:101280008D838D819E819A83898389819A8101973B
:10129000F1F79A8389838F858F5F8F878F8585305C
:1012A00008F475CF81E080938E0003C010928E0009
:1012B000198A6B960FB6F894DEBF0FBECDBFCF91E3
:1012C000DF911F910F910895DF93CF93CDB7DEB7D4
:1012D00081E060E041E00E94A10A81E060E040E03E
:1012E0000E94640DCF91DF910895DF93CF93CDB726
:1012F000DEB781E060E041E00E94640DCF91DF91B4
:101300000895DF93CF93CDB7DEB781E060E040E092
:101310000E94640DCF91DF910895DF93CF93CDB7F5
:10132000DEB781E064E041E00E94A10A81E065E06F
:1013300041E00E94A10A81E064E040E00E94640D67
:1013400081E065E040E00E94640DCF91DF91089557
:10135000DF93CF93CDB7DEB72A970FB6F894DEBFF1
:101360000FBECDBF8F8368878F81282F30E03A87EB
:10137000298789859A8581309105B1F029853A853B
:1013800022303105E1F089859A85009711F581E0D9
:1013900064E040E00E94640D81E065E040E00E946E
:1013A000640D0E94DE1315C081E064E040E00E94FD
:1013B000640D81E065E041E00E94640D0AC081E0B7
:1013C00064E041E00E94640D81E065E040E00E943D
:1013D000640D83E0898382E08A8382E08B831C82B0
:1013E0001D8288858E83CE0101960E9408132A965D
:1013F0000FB6F894DEBF0FBECDBFCF91DF91089539
:10140000DF93CF9300D000D0CDB7DEB79A83898326
:101410006B830E9491150E941516883011F01C8272
:1014200028C089819A8180709770880F892F881FC2
:10143000990B9195806A0E94C1150E9415168831FA
:1014400011F01C8216C089810E94C1150E941516D8
:10145000883211F01C820DC08B810E94C1150E9440
:101460001516883211F01C8204C00E94AC1581E070
:101470008C838C810F900F900F900F90CF91DF9104
:101480000895DF93CF9300D000D00F92CDB7DEB791
:101490009A8389837C836B830E9491150E94151621
:1014A000883011F01D8244C089819A8180709770C4
:1014B000880F892F881F990B9195806A0E94C1150A
:1014C0000E941516883111F01D8232C089810E9458
:1014D000C1150E941516883211F01D8229C00E9484
:1014E00091150E941516803111F01D8221C089814D
:1014F0009A8180709770880F892F881F990B91951A
:10150000816A0E94C1150E941516803411F01D8257
:101510000FC00E94FC15EB81FC8180830E94151690
:10152000883511F01D8204C00E94AC1581E08D83C6
:101530008D810F900F900F900F900F90CF91DF91B2
:101540000895DF93CF93CDB7DEB72D970FB6F894FC
:10155000DEBF0FBECDBF89836A834B838A8188300B
:1015600008F0A9C28981843008F0A5C28981282F9A
:1015700030E03D872C878C859D858130910509F46D
:10158000B8C02C853D85223031052CF48C859D8595
:10159000009771F090C22C853D852230310509F409
:1015A00049C18C859D858330910509F4E4C183C2CE
:1015B0008A81282F30E03B872A878A859B85833064
:1015C000910509F451C02A853B85243031057CF40E
:1015D0008A859B858130910571F12A853B85223072
:1015E0003105ACF58A859B850097D1F064C22A85C8
:1015F0003B852530310509F452C08A859B858530AD
:1016000091050CF43FC02A853B852630310509F44D
:1016100054C08A859B858730910509F45DC04BC213
:10162000EAE3F0E08B818170982F917080818E7F4A
:10163000892B808340C2EAE3F0E08B818170817066
:10164000982F990F80818D7F892B808334C2EAE3A4
:10165000F0E08B8181708170982F990F990F8081B4
:101660008B7F892B808327C2EAE3F0E08B81817036
:101670008170982F990F990F990F8081877F892BFF
:10168000808319C2EAE3F0E08B8181708170982F2A
:101690009295907F80818F7E892B80830CC2EAE3B4
:1016A000F0E08B8181708170982F9295990F907ED8
:1016B00080818F7D892B8083FEC1EAE3F0E08B81FE
:1016C00081708170982F9295990F990F907C8081ED
:1016D0008F7B892B8083EFC1EAE3F0E08B818170FF
:1016E000982F97959927979580818F77892B80835D
:1016F000E2C18A81282F30E039872887888599853B
:101700008330910509F451C028853985243031058D
:101710007CF4888599858130910571F1288539851A
:1017200022303105ACF5888599850097D1F0C3C189
:10173000288539852530310509F452C08885998579
:10174000853091050CF43FC0288539852630310558
:1017500009F454C0888599858730910509F45DC0E6
:10176000AAC1E7E3F0E08B818170982F91708081AE
:101770008E7F892B80839FC1E7E3F0E08B818170AE
:101780008170982F990F80818D7F892B808393C1E1
:10179000E7E3F0E08B8181708170982F990F990FAA
:1017A00080818B7F892B808386C1E7E3F0E08B818A
:1017B00081708170982F990F990F990F8081877F81
:1017C000892B808378C1E7E3F0E08B8181708170A1
:1017D000982F9295907F80818F7E892B80836BC11B
:1017E000E7E3F0E08B8181708170982F9295990FDB
:1017F000907E80818F7D892B80835DC1E7E3F0E05F
:101800008B8181708170982F9295990F990F907CA0
:1018100080818F7B892B80834EC1E7E3F0E08B8151
:101820008170982F97959927979580818F77892B2D
:10183000808341C18A81282F30E03F832E838E81AF
:101840009F818330910509F451C02E813F8124305E
:1018500031057CF48E819F818130910571F12E815B
:101860003F8122303105ACF58E819F810097D1F008
:1018700022C12E813F812530310509F452C08E816D
:101880009F81853091050CF43FC02E813F81263029
:10189000310509F454C08E819F818730910509F488
:1018A0005DC009C1E4E3F0E08B818170982F9170F5
:1018B00080818E7F892B8083FEC0E4E3F0E08B8102
:1018C00081708170982F990F80818D7F892B808303
:1018D000F2C0E4E3F0E08B8181708170982F990F62
:1018E000990F80818B7F892B8083E5C0E4E3F0E052
:1018F0008B8181708170982F990F990F990F80813A
:10190000877F892B8083D7C0E4E3F0E08B818170EF
:101910008170982F9295907F80818F7E892B808314
:10192000CAC0E4E3F0E08B8181708170982F9295BA
:10193000990F907E80818F7D892B8083BCC0E4E3EA
:10194000F0E08B8181708170982F9295990F990F9B
:10195000907C80818F7B892B8083ADC0E4E3F0E0B5
:101960008B818170982F97959927979580818F7794
:10197000892B8083A0C08A81282F30E03D832C836F
:101980008C819D818330910509F451C02C813D816A
:10199000243031057CF48C819D818130910571F179
:1019A0002C813D8122303105ACF58C819D810097E1
:1019B000D1F081C02C813D812530310509F452C020
:1019C0008C819D81853091050CF43FC02C813D8137
:1019D0002630310509F454C08C819D8187309105F2
:1019E00009F45DC068C0E1E3F0E08B818170982F5D
:1019F000917080818E7F892B80835DC0E1E3F0E070
:101A00008B8181708170982F990F80818D7F892BB8
:101A1000808351C0E1E3F0E08B8181708170982F69
:101A2000990F990F80818B7F892B808344C0E1E3DC
:101A3000F0E08B8181708170982F990F990F990F29
:101A40008081877F892B808336C0E1E3F0E08B8142
:101A500081708170982F9295907F80818F7E892BE5
:101A6000808329C0E1E3F0E08B8181708170982F41
:101A70009295990F907E80818F7D892B80831BC0EA
:101A8000E1E3F0E08B8181708170982F9295990F3E
:101A9000990F907C80818F7B892B80830CC0E1E340
:101AA000F0E08B818170982F979599279795808189
:101AB0008F77892B80832D960FB6F894DEBF0FBEEB
:101AC000CDBFCF91DF910895DF93CF93CDB7DEB730
:101AD0002D970FB6F894DEBF0FBECDBF89836A8302
:101AE0004B838A81883008F0A9C28981843008F04C
:101AF000A5C28981282F30E03D872C878C859D8564
:101B00008130910509F4B8C02C853D85223031051E
:101B10002CF48C859D85009771F090C22C853D85B5
:101B20002230310509F449C18C859D8583309105AA
:101B300009F4E4C183C28A81282F30E03B872A87D9
:101B40008A859B858330910509F451C02A853B85A0
:101B5000243031057CF48A859B858130910571F1B3
:101B60002A853B8522303105ACF58A859B85009717
:101B7000D1F064C22A853B852530310509F452C075
:101B80008A859B85853091050CF43FC02A853B856D
:101B90002630310509F454C08A859B85873091052C
:101BA00009F45DC04BC2EBE3F0E08B818170982FAC
:101BB000917080818E7F892B808340C2EBE3F0E0BF
:101BC0008B8181708170982F990F80818D7F892BF7
:101BD000808334C2EBE3F0E08B8181708170982FB9
:101BE000990F990F80818B7F892B808327C2EBE32C
:101BF000F0E08B8181708170982F990F990F990F68
:101C00008081877F892B808319C2EBE3F0E08B8191
:101C100081708170982F9295907F80818F7E892B23
:101C200080830CC2EBE3F0E08B8181708170982F90
:101C30009295990F907E80818F7D892B8083FEC144
:101C4000EBE3F0E08B8181708170982F9295990F72
:101C5000990F907C80818F7B892B8083EFC1EBE390
:101C6000F0E08B818170982F9795992797958081C7
:101C70008F77892B8083E2C18A81282F30E03987D2
:101C80002887888599858330910509F451C0288576
:101C90003985243031057CF488859985813091051A
:101CA00071F12885398522303105ACF58885998513
:101CB0000097D1F0C3C1288539852530310509F455
:101CC00052C088859985853091050CF43FC02885E0
:101CD00039852630310509F454C0888599858730C7
:101CE000910509F45DC0AAC1E8E3F0E08B81817041
:101CF000982F917080818E7F892B80839FC1E8E32C
:101D0000F0E08B8181708170982F990F80818D7F99
:101D1000892B808393C1E8E3F0E08B81817081702F
:101D2000982F990F990F80818B7F892B808386C193
:101D3000E8E3F0E08B8181708170982F990F990F03
:101D4000990F8081877F892B808378C1E8E3F0E059
:101D50008B8181708170982F9295907F80818F7E8A
:101D6000892B80836BC1E8E3F0E08B818170817007
:101D7000982F9295990F907E80818F7D892B8083FB
:101D80005DC1E8E3F0E08B8181708170982F9295BE
:101D9000990F990F907C80818F7B892B80834EC116
:101DA000E8E3F0E08B818170982F979599279795BC
:101DB00080818F77892B808341C18A81282F30E0F1
:101DC0003F832E838E819F818330910509F451C01A
:101DD0002E813F81243031057CF48E819F818130BA
:101DE000910571F12E813F8122303105ACF58E8154
:101DF0009F810097D1F022C12E813F81253031058E
:101E000009F452C08E819F81853091050CF43FC04A
:101E10002E813F812630310509F454C08E819F8187
:101E20008730910509F45DC009C1E5E3F0E08B81DD
:101E30008170982F917080818E7F892B8083FEC066
:101E4000E5E3F0E08B8181708170982F990F80819C
:101E50008D7F892B8083F2C0E5E3F0E08B81817078
:101E60008170982F990F990F80818B7F892B8083A8
:101E7000E5C0E5E3F0E08B8181708170982F990FC8
:101E8000990F990F8081877F892B8083D7C0E5E3E5
:101E9000F0E08B8181708170982F9295907F808186
:101EA0008F7E892B8083CAC0E5E3F0E08B8181704F
:101EB0008170982F9295990F907E80818F7D892BCC
:101EC0008083BCC0E5E3F0E08B8181708170982F46
:101ED0009295990F990F907C80818F7B892B8083BD
:101EE000ADC0E5E3F0E08B818170982F979599273D
:101EF000979580818F77892B8083A0C08A81282F36
:101F000030E03D832C838C819D818330910509F4E1
:101F100051C02C813D81243031057CF48C819D8120
:101F20008130910571F12C813D8122303105ACF574
:101F30008C819D810097D1F081C02C813D8125301D
:101F4000310509F452C08C819D81853091050CF4D6
:101F50003FC02C813D812630310509F454C08C816D
:101F60009D818730910509F45DC068C0E2E3F0E02F
:101F70008B818170982F917080818E7F892B8083D7
:101F80005DC0E2E3F0E08B8181708170982F990F42
:101F900080818D7F892B808351C0E2E3F0E08B81CB
:101FA00081708170982F990F990F80818B7F892B79
:101FB000808344C0E2E3F0E08B8181708170982FD0
:101FC000990F990F990F8081877F892B808336C065
:101FD000E2E3F0E08B8181708170982F9295907F81
:101FE00080818F7E892B808329C0E2E3F0E08B81A2
:101FF00081708170982F9295990F907E80818F7D4E
:10200000892B80831BC0E2E3F0E08B8181708170BB
:10201000982F9295990F990F907C80818F7B892BB7
:1020200080830CC0E2E3F0E08B818170982F97955C
:102030009927979580818F77892B80832D960FB66E
:10204000F894DEBF0FBECDBFCF91DF910895DF932F
:10205000CF93CDB7DEB72D970FB6F894DEBF0FBE86
:10206000CDBF8A836B8319828B81883008F0F9C1D8
:102070008A81843008F0F5C18A81282F30E03D87BD
:102080002C878C859D858130910509F48CC02C8529
:102090003D85223031052CF48C859D85009771F0AB
:1020A000E0C12C853D852230310509F4F1C08C85D5
:1020B0009D858330910509F460C1D3C18B81282FA0
:1020C00030E03B872A878A859B858330910509F418
:1020D0003EC02A853B85243031057CF48A859B856A
:1020E0008130910529F12A853B85223031053CF567
:1020F0008A859B850097B1F0B4C12A853B85253040
:102100003105B1F18A859B85853091054CF12A8591
:102110003B8526303105A9F18A859B85873091055D
:10212000D1F19FC1E9E3F0E080818170898399C199
:10213000E9E3F0E0808186958170898392C1E9E3CB
:10214000F0E0808186958695817089838AC1E9E374
:10215000F0E080818695869586958170898381C11E
:10216000E9E3F0E0808182958F708170898379C185
:10217000E9E3F0E08081829586958770817089839C
:1021800070C1E9E3F0E08081829586958695837041
:102190008170898366C1E9E3F0E08081881F882728
:1021A000881F89835EC18B81282F30E0398728877B
:1021B000888599858330910509F43EC02885398545
:1021C000243031057CF4888599858130910529F189
:1021D00028853985223031053CF588859985009719
:1021E000B1F03FC12885398525303105B1F18885A9
:1021F0009985853091054CF1288539852630310542
:10220000A9F18885998587309105D1F12AC1E6E346
:10221000F0E080818170898324C1E6E3F0E0808171
:102220008695817089831DC1E6E3F0E08081869503
:1022300086958170898315C1E6E3F0E080818695FB
:1022400086958695817089830CC1E6E3F0E08081F4
:1022500082958F708170898304C1E6E3F0E080810C
:1022600082958695877081708983FBC0E6E3F0E0F4
:102270008081829586958695837081708983F1C06F
:10228000E6E3F0E08081881F8827881F8983E9C002
:102290008B81282F30E03F832E838E819F81833076
:1022A000910509F43EC02E813F81243031057CF434
:1022B0008E819F818130910529F12E813F812230CD
:1022C00031053CF58E819F810097B1F0CAC02E8107
:1022D0003F8125303105B1F18E819F818530910597
:1022E0004CF12E813F8126303105A9F18E819F81ED
:1022F00087309105D1F1B5C0E3E3F0E080818170D2
:102300008983AFC0E3E3F0E08081869581708983A3
:10231000A8C0E3E3F0E0808186958695817089838B
:10232000A0C0E3E3F0E08081869586958695817074
:10233000898397C0E3E3F0E0808182958F7081709C
:1023400089838FC0E3E3F0E0808182958695877072
:102350008170898386C0E3E3F0E080818295869571
:1023600086958370817089837CC0E3E3F0E080818F
:10237000881F8827881F898374C08B81282F30E0AD
:102380003D832C838C819D818330910509F43EC06F
:102390002C813D81243031057CF48C819D818130FC
:1023A000910529F12C813D81223031053CF58C814C
:1023B0009D810097B1F055C02C813D8125303105BC
:1023C000B1F18C819D81853091054CF12C813D814D
:1023D00026303105A9F18C819D8187309105D1F19D
:1023E00040C0E0E3F0E08081817089833AC0E0E39F
:1023F000F0E0808186958170898333C0E0E3F0E06E
:10240000808186958695817089832BC0E0E3F0E01A
:1024100080818695869586958170898322C0E0E3C8
:10242000F0E0808182958F70817089831AC0E0E32B
:10243000F0E080818295869587708170898311C0D4
:10244000E0E3F0E0808182958695869583708170C7
:10245000898307C0E0E3F0E08081881F8827881F18
:10246000898389812D960FB6F894DEBF0FBECDBF4C
:10247000CF91DF910895DF93CF9300D000D0CDB7F7
:10248000DEB789836A838981843090F58981282F1A
:1024900030E03C832B838B819C8181309105D1F08E
:1024A0002B813C81223031052CF48B819C8100975B
:1024B00061F01EC02B813C812230310581F08B817F
:1024C0009C818330910581F013C0EAE3F0E08A81BA
:1024D00080830EC0E7E3F0E08A81808309C0E4E3F3
:1024E000F0E08A81808304C0E1E3F0E08A818083A8
:1024F0000F900F900F900F90CF91DF910895DF9381
:10250000CF9300D000D0CDB7DEB789836A838981AD
:10251000843090F58981282F30E03C832B838B8198
:102520009C8181309105D1F02B813C812230310595
:102530002CF48B819C81009761F01EC02B813C8123
:102540002230310581F08B819C818330910581F0AF
:1025500013C0EBE3F0E08A8180830EC0E8E3F0E093
:102560008A81808309C0E5E3F0E08A81808304C02A
:10257000E2E3F0E08A8180830F900F900F900F903C
:10258000CF91DF910895DF93CF9300D000D0CDB7E6
:10259000DEB78A8319828A81843090F58A81282F58
:1025A00030E03C832B838B819C8181309105D1F07D
:1025B0002B813C81223031052CF48B819C8100974A
:1025C00061F01EC02B813C812230310581F08B816E
:1025D0009C818330910581F013C0E9E3F0E08081B4
:1025E00089830EC0E6E3F0E08081898309C0E3E3DC
:1025F000F0E08081898304C0E0E3F0E0808189839A
:1026000089810F900F900F900F90CF91DF910895D7
:10261000DF93CF9300D000D0CDB7DEB79A83898304
:10262000E3E5F0E01082A9E5B0E0E9E5F0E08081C3
:102630008C7F8C93E981FA818081813029F0E98156
:10264000FA818081833001F5E3E5F0E080818F77C6
:102650008083ACE5B0E0E981FA81858194E6692F59
:102660000E945617482F50E0CA019C01220F331FC9
:10267000C9019695982F882797958795821B930B6C
:10268000840F951F8C9305C0E3E5F0E0808180689E
:102690008083E981FA818181882329F081E063E0E8
:1026A00041E00E94A10AA3E5B0E0E981FA818081BE
:1026B0008170817081708170982F9295990F990F18
:1026C000907C8C918F7B892B8C93A3E5B0E0E98182
:1026D000FA818081882F90E082709070959587951F
:1026E00081708170982F990F990F990F8C91877F26
:1026F000892B8C93A3E5B0E0E3E5F0E08081282FFF
:102700002F7CE981FA818181882F90E082959295D2
:10271000907F9827807F9827822B8C93A3E5B0E049
:10272000E3E5F0E08081982F987FE981FA8182814A
:10273000892B8C93E981FA818381282F30E03C83B7
:102740002B838B819C818130910531F02B813C81E1
:102750002230310539F011C0E9E5F0E08081816077
:1027600080830BC0E9E5F0E0808182608083ACE586
:10277000B0E0E981FA8185818C93E2E5F0E0A981FE
:10278000BA8114968C91149780830F900F900F90BC
:102790000F90CF91DF910895DF93CF9300D0CDB705
:1027A000DEB79A83898389819A819093920080937E
:1027B00091000F900F90CF91DF910895DF93CF9309
:1027C000CDB7DEB7E3E5F0E01082A9E5B0E0E9E5DA
:1027D000F0E080818C7F8C93E2E5F0E01082ECE504
:1027E000F0E010821092920010929100CF91DF9150
:1027F00008951F920F920FB60F9211242F933F93BB
:102800004F935F936F937F938F939F93AF93BF93F8
:10281000EF93FF93DF93CF93CDB7DEB78091910015
:1028200090919200009729F0E0919100F091920030
:102830000995CF91DF91FF91EF91BF91AF919F915A
:102840008F917F916F915F914F913F912F910F9059
:102850000FBE0F901F9018951F920F920FB60F92F8
:1028600011242F933F934F935F936F937F938F9395
:102870009F93AF93BF93EF93FF93DF93CF93CDB726
:10288000DEB78091910090919200009729F0E0913D
:102890009100F09192000995CF91DF91FF91EF9116
:1028A000BF91AF919F918F917F916F915F914F9168
:1028B0003F912F910F900FBE0F901F901895DF93AF
:1028C000CF9300D0CDB7DEB79A838983EFE4F0E0F1
:1028D0001082EEE4F0E01082EFE4F0E080818860A6
:1028E0008083EFE4F0E0808184608083E981FA8175
:1028F00085818823F9F4EFE4F0E080818E7F808386
:10290000EFE4F0E080818D7F8083EEE4F0E0808171
:10291000877F8083EEE4F0E080818F7E8083E9E52D
:10292000F0E0808184608083E9E5F0E080818F7E43
:1029300080831DC0E981FA8185818430C1F4EEE491
:10294000F0E0808188608083AAE4B0E0E981FA81C8
:102950008281938111969C938E93E9E5F0E08081CA
:1029600080618083E9E5F0E080818B7F8083AEE445
:10297000B0E0EEE4F0E08081982F987FE981FA8161
:102980008481892B8C93ACE4B0E0E981FA81808169
:10299000918111969C938E930F900F90CF91DF9120
:1029A0000895DF93CF93CDB7DEB7EFE4F0E0108268
:1029B000EEE4F0E01082E9E5F0E080818B7F808337
:1029C000E9E5F0E080818F7E8083ECE4F0E0118225
:1029D0001082EAE4F0E011821082109294001092CA
:1029E0009300CF91DF910895DF93CF9300D0CDB7BF
:1029F000DEB79A83898389819A819093940080932A
:102A000093000F900F90CF91DF9108951F920F9236
:102A10000FB60F9211242F933F934F935F936F93B1
:102A20007F938F939F93AF93BF93EF93FF93DF9326
:102A3000CF93CDB7DEB7809193009091940000972B
:102A400029F0E0919300F09194000995CF91DF91E6
:102A5000FF91EF91BF91AF919F918F917F916F9176
:102A60005F914F913F912F910F900FBE0F901F904C
:102A700018951F920F920FB60F9211242F933F9328
:102A80004F935F936F937F938F939F93AF93BF9376
:102A9000EF93FF93DF93CF93CDB7DEB78091930091
:102AA00090919400009729F0E0919300F0919400A8
:102AB0000995CF91DF91FF91EF91BF91AF919F91D8
:102AC0008F917F916F915F914F913F912F910F90D7
:102AD0000FBE0F901F901895DF93CF9300D0CDB706
:102AE000DEB79A838983A0E2B0E0E981FA8183812D
:102AF00094818C93A1E2B0E0E981FA8180818C938A
:102B0000A2E2B0E0E981FA81818192818C93E6E5CD
:102B1000F0E08081846080830F900F90CF91DF91EF
:102B20000895DF93CF93CDB7DEB7E6E5F0E084E01C
:102B30008083E6E5F0E0808180628083E6E5F0E076
:102B4000808180688083E6E5F0E08081807888235A
:102B5000D1F3CF91DF910895DF93CF93CDB7DEB757
:102B6000E6E5F0E084E08083E6E5F0E080818061E6
:102B70008083E6E5F0E0808180688083CF91DF91FB
:102B80000895DF93CF930F92CDB7DEB78983E3E249
:102B9000F0E089818083E6E5F0E084E08083E6E58B
:102BA000F0E0808180688083E6E5F0E080818078D5
:102BB0008823D1F30F90CF91DF910895DF93CF93C6
:102BC000CDB7DEB7E6E5F0E084E08083E6E5F0E04F
:102BD000808180648083E6E5F0E080818068808386
:102BE000E6E5F0E0808180788823D1F3E3E2F0E04D
:102BF0008081CF91DF910895DF93CF93CDB7DEB77A
:102C0000E6E5F0E084E08083E6E5F0E0808180683E
:102C10008083E6E5F0E0808180788823D1F3E3E2E9
:102C2000F0E08081CF91DF910895DF93CF930F92F1
:102C3000CDB7DEB7E1E2F0E08081887F89838981CA
:102C40000F90CF91DF910895DF93CF9300D000D004
:102C5000CDB7DEB79C838B831A821982EBE2F0E05A
:102C60001082EBE2F0E0808182608083EAE2F0E0B3
:102C70001082EAE2F0E0808180618083EAE2F0E0A5
:102C8000808188608083EB81FC818281873051F470
:102C9000EAE2F0E0808184608083EB81FC8183E064
:102CA000828305C0EAE2F0E080818B7F8083E0E4EC
:102CB000F0E01082A0E4B0E0EB81FC8181818170C2
:102CC0008170982F990F990F990F8C91877F892B7D
:102CD0008C93A0E4B0E0E0E4F0E08081282F2F7C2A
:102CE000EB81FC818081882F90E082959295907F86
:102CF0009827807F9827822B8C93A0E4B0E0E0E4B3
:102D0000F0E08081282F297FEB81FC818281882F50
:102D100090E0880F991F822B8C93EB81FC8183813B
:102D20009481A581B681880F991FAA1FBB1F880FA8
:102D3000991FAA1FBB1F880F991FAA1FBB1F9C01A9
:102D4000AD0180E092E1AAE7B0E0BC01CD010E94B4
:102D50006217DA01C90101979A838983E0E4F0E000
:102D600089819A81892F99278F70982F9F708081F0
:102D7000807F892B8083E9E2F0E0898180830F9056
:102D80000F900F900F90CF91DF910895DF93CF9325
:102D90000F92CDB7DEB78983EBE2F0E080818072DD
:102DA0008823D1F3ECE2F0E0898180830F90CF910A
:102DB000DF910895DF93CF9300D00F92CDB7DEB7A8
:102DC0009B838A8319820EC08981282F30E08A81F3
:102DD0009B81FC01E20FF31F80810E94C61689814E
:102DE0008F5F89838981282F30E08A819B81FC0154
:102DF000E20FF31F8081882339F70F900F900F9017
:102E0000CF91DF910895DF93CF93CDB7DEB7EBE29B
:102E1000F0E0808180788823D1F3ECE2F0E08081DB
:102E2000CF91DF9108950F931F93DF93CF9300D03D
:102E30000F92CDB7DEB79B838A8319828981282FB1
:102E400030E08A819B818C01020F131F0E940317BF
:102E5000F80180830FC089818F5F89838981282F42
:102E600030E08A819B818C01020F131F0E9403179F
:102E7000F80180838981282F30E08A819B81FC01C1
:102E8000E20FF31F8081833231F78981282F30E0F0
:102E90008A819B81FC01E20FF31F10820F900F903B
:102EA0000F90CF91DF911F910F910895991B79E0B9
:102EB00004C0991F961708F0961B881F7A95C9F7CA
:102EC00080950895A1E21A2EAA1BBB1BFD010DC01F
:102ED000AA1FBB1FEE1FFF1FA217B307E407F507CA
:102EE00020F0A21BB30BE40BF50B661F771F881FA6
:102EF000991F1A9469F760957095809590959B013C
:102F0000AC01BD01CF0108952F923F924F925F9285
:102F10006F927F928F929F92AF92BF92CF92DF92E9
:102F2000EF92FF920F931F93CF93DF93CDB7DEB74E
:102F3000CA1BDB0B0FB6F894DEBF0FBECDBF0994E2
:102F40002A88398848885F846E847D848C849B8439
:102F5000AA84B984C884DF80EE80FD800C811B8147
:102F6000AA81B981CE0FD11D0FB6F894DEBF0FBE76
:0A2F7000CDBFED010895F894FFCFE6
:102F7A000000000000000000F5FF0000050000004E
:102F8A000A00050400000380250000000100020079
:0C2F9A0000008E5B050400000000050034
:00000001FF
