:100000000C942A000C9447000C9447000C94470071
:100010000C9447000C9447000C9447000C947D1AF4
:100020000C9447000C944A1A0C9447000C94470017
:100030000C9447000C9447000C9447000C94470024
:100040000C9447000C9447000C9447000C94470014
:100050000C94470011241FBECFE5D8E0DEBFCDBF12
:1000600011E0A0E6B0E0E4E0F9E302C005900D92F3
:10007000A630B107D9F711E0A6E0B1E001C01D92AA
:10008000AB30B107E1F70E94A3050C94801C0C94DF
:100090000000EF92FF920F931F937B018C0120E0F1
:1000A00030E040E05FE40E94490388238CF0C801FF
:1000B000B70120E030E040E05FE40E94C1010E940F
:1000C000A9039B01AC01205030404040504806C07D
:1000D000C801B7010E94A9039B01AC01B901CA0183
:1000E0001F910F91FF90EF900895A0E0B0E0EBE733
:1000F000F0E00C94041CDC012B01FA019C9192307D
:1001000008F439C1EB018881823008F433C194309E
:1001100069F4843009F02FC111969C91119789815F
:10012000981709F428C1AEEDB0E025C1843009F478
:1001300021C18230A9F4923009F01DC19A01AD01AC
:1001400088E0EA010990AE01E90109929E0181501F
:10015000C1F7E201898111969C918923818308C1AD
:10016000923009F407C112962D903C901397EB0141
:100170008A819B811496AD90BD90CD90DC901797AD
:10018000EC80FD800E811F819101281B390BB90184
:1001900037FF04C066277727621B730B6032710537
:1001A0000CF061C0121613066CF537014801062EDB
:1001B00004C096948794779467940A94D2F721E0C8
:1001C00030E040E050E004C0220F331F441F551FB1
:1001D0006A95D2F721503040404050402E213F21B7
:1001E00040235123211531054105510521F021E01E
:1001F00030E040E050E079018A01E628F72808293C
:1002000019293CC0232BD1F1260E371E350146019A
:10021000062E04C096948794779467940A94D2F734
:1002200021E030E040E050E004C0220F331F441FC3
:10023000551F6A95D2F721503040404050402A2146
:100240003B214C215D21211531054105510521F04E
:1002500021E030E040E050E059016A01A628B728CB
:10026000C828D9280BC0821593052CF01C01AA249C
:10027000BB24650103C0EE24FF24870111969C91E5
:10028000D20111968C91981709F445C0992339F041
:10029000A80197012A193B094C095D0906C0A6016E
:1002A00095012E193F09400B510B57FD08C01182D3
:1002B0003382228224833583468357831DC081E0A5
:1002C00081833382228288279927DC01821B930B4A
:1002D000A40BB50B84839583A683B7830DC0220F2F
:1002E000331F441F551F24833583468357838281E0
:1002F000938101979383828324813581468157813D
:10030000DA01C9010197A109B1098F5F9F4FAF4F72
:10031000BF4328F30BC0918333822282EA0CFB1C7B
:100320000C1D1D1DE482F5820683178383E0808304
:10033000248135814681578157FF1AC0C901AA27F8
:1003400097FDA095BA2F81709070A070B0705695EF
:10035000479537952795822B932BA42BB52B848318
:100360009583A683B7838281938101969383828349
:10037000DF0101C0D201CD01CDB7DEB7E2E10C94BF
:10038000201CA0E2B0E0E7ECF1E00C94101C6983C3
:100390007A838B839C832D833E834F835887E9E048
:1003A000EE2EF12CEC0EFD1ECE010196B7010E943F
:1003B000D2048E010F5E1F4FCE010596B8010E9438
:1003C000D2048A8991E089278A8BC701B801AE01DE
:1003D000475E5F4F0E9475000E94FD03A096E6E015
:1003E0000C942C1CA0E2B0E0E8EFF1E00C94101C9F
:1003F00069837A838B839C832D833E834F835887C5
:10040000F9E0EF2EF12CEC0EFD1ECE010196B701A6
:100410000E94D2048E010F5E1F4FCE010596B801D7
:100420000E94D204C701B801AE01475E5F4F0E942F
:1004300075000E94FD03A096E6E00C942C1CA0E23F
:10044000B0E0E5E2F2E00C94041C69837A838B83CC
:100450009C832D833E834F835887CE010196BE0136
:10046000675F7F4F0E94D204CE010596BE016F5E8A
:100470007F4F0E94D2049985923088F0898982301A
:10048000C8F0943019F4823051F404C0843029F457
:10049000923081F48EED90E0C6C0923049F420E0B5
:1004A0009A858A89981321E02A87CE010996BBC0D4
:1004B000823049F420E09A858A89981321E02A8BBA
:1004C000CE014196B0C02D843E844F8458886D88FB
:1004D0007E888F88988CEE24FF248701AA24BB2471
:1004E000650140E050E060E070E0E0E0F0E0C10174
:1004F00081709070892BE9F0E60CF71C081D191D1E
:100500009A01AB012A0D3B1D4C1D5D1D80E090E062
:10051000A0E0B0E0E614F7040805190520F481E036
:1005200090E0A0E0B0E0BA01A901480F591F6A1F8E
:100530007B1FAA0CBB1CCC1CDD1C97FE08C081E0F5
:1005400090E0A0E0B0E0A82AB92ACA2ADB2A3196B6
:10055000E032F10549F0660C771C881C991C569412
:10056000479437942794C3CFFA85EA892B893C892D
:100570008B859C85280F391F2E5F3F4F17C0CA01FE
:1005800081709070892B61F016950795F794E79428
:1005900080E090E0A0E0B0E8E82AF92A0A2B1B2BC3
:1005A00076956795579547952F5F3F4F77FDE7CF36
:1005B0000CC0440F551F661F771F17FD4160EE0CDE
:1005C000FF1C001F111F21503040403090E05907A0
:1005D00090E0690790E4790760F32B8F3C8FDB0193
:1005E000CA018F779070A070B07080349105A1051A
:1005F000B10561F447FD0AC0E114F10401051105DC
:1006000029F0405C5F4F6F4F7F4F40781A8EFE1786
:1006100011F081E08A8F4D8F5E8F6F8F78A383E01A
:10062000898FCE0149960E94FD03A096E2E10C94C9
:10063000201CA8E1B0E0EFE1F3E00C94101C69830A
:100640007A838B839C832D833E834F83588789E0F5
:10065000E82EF12CEC0EFD1ECE010196B7010E9492
:10066000D2048E010F5E1F4FCE010596B8010E9485
:10067000D2048985823040F08989823028F0C70110
:10068000B8010E944A0501C08FEF6896E6E00C941D
:100690002C1CA8E1B0E0EFE4F3E00C94101C69839B
:1006A0007A838B839C832D833E834F83588789E095
:1006B000E82EF12CEC0EFD1ECE010196B7010E9432
:1006C000D2048E010F5E1F4FCE010596B8010E9425
:1006D000D2048985823040F08989823028F0C701B0
:1006E000B8010E944A0501C08FEF6896E6E00C94BD
:1006F0002C1CA8E1B0E0EFE7F3E00C94101C698338
:100700007A838B839C832D833E834F83588789E034
:10071000E82EF12CEC0EFD1ECE010196B7010E94D1
:10072000D2048E010F5E1F4FCE010596B8010E94C4
:10073000D2048985823040F08989823028F0C7014F
:10074000B8010E944A0501C081E06896E6E00C9479
:100750002C1CACE0B0E0EFEAF3E00C94141C6983CD
:100760007A838B839C83CE010196BE016B5F7F4FA2
:100770000E94D2048D81823061F1823050F1843048
:1007800021F48E81882351F12EC02F81388537FDC9
:1007900020C06E812F3131051CF06623F9F023C093
:1007A0008EE190E0821B930B29853A854B855C8511
:1007B00004C056954795379527958A95D2F76623B5
:1007C000B1F050954095309521953F4F4F4F5F4F79
:1007D0000EC020E030E040E050E009C02FEF3FEFD6
:1007E0004FEF5FE704C020E030E040E050E8B9019F
:1007F000CA012C96E2E00C94301CDF92EF92FF923B
:100800000F931F93FC01E480F58006811781D1804E
:100810008081823048F480E090E0A0E1B0E0E82AF6
:10082000F92A0A2B1B2BA5C0843009F49FC0823003
:1008300021F4EE24FF24870105C0E114F104010531
:10084000110519F4E0E0F0E096C0628173819FEF3A
:10085000623879070CF05BC022E83FEF261B370BAC
:100860002A3131052CF020E030E040E050E02AC091
:10087000B801A701022E04C0769567955795479554
:100880000A94D2F781E090E0A0E0B0E004C0880FC5
:10089000991FAA1FBB1F2A95D2F70197A109B10979
:1008A0008E219F21A023B1230097A105B10521F03E
:1008B00081E090E0A0E0B0E09A01AB01282B392B59
:1008C0004A2B5B2BDA01C9018F779070A070B07052
:1008D00080349105A105B10539F427FF09C0205CDA
:1008E0003F4F4F4F5F4F04C0215C3F4F4F4F5F4F13
:1008F000E0E0F0E02030A0E03A07A0E04A07A0E402
:100900005A0710F0E1E0F0E079018A0127C0603871
:10091000710564F5FB01E158FF4FD801C7018F77DE
:100920009070A070B07080349105A105B10539F4C4
:10093000E7FE0DC080E490E0A0E0B0E004C08FE3EB
:1009400090E0A0E0B0E0E80EF91E0A1F1B1F17FFA1
:1009500005C016950795F794E794319687E01695AC
:100960000795F794E7948A95D1F705C0EE24FF2404
:100970008701EFEFF0E06E2F679566276795902F60
:100980009F77D794DD24D7948E2F8695492F462BB9
:10099000582F5D29B701CA011F910F91FF90EF9069
:1009A000DF900895FC01DB01408151812281622F9B
:1009B0006F7770E0221F2227221F9381892F880FD3
:1009C000822B282F30E0991F9927991F11969C930D
:1009D000119721153105A9F54115510561057105DD
:1009E00011F482E037C082E89FEF13969C938E93B8
:1009F00012979A01AB0167E0220F331F441F551F66
:100A00006A95D1F783E08C930DC0220F331F441FEA
:100A1000551F12968D919C911397019713969C9355
:100A20008E931297203080E0380780E0480780E4FA
:100A3000580758F314962D933D934D935C93179755
:100A400008952F3F310579F4411551056105710570
:100A500019F484E08C93089564FF03C081E08C93C3
:100A600012C01C9210C02F57304013963C932E9307
:100A7000129783E08C9387E0440F551F661F771F02
:100A80008A95D1F7706414964D935D936D937C9322
:100A9000179708951F93DC01FB019C91923008F495
:100AA00047C08081823008F443C0943051F41196DD
:100AB0001C91843099F58181682F70E0611B710968
:100AC0003FC0843021F0923031F48230B9F181811D
:100AD000882389F12DC011961C9111978230F1F075
:100AE00081811817D9F412962D913C911397828128
:100AF00093818217930794F028173907BCF0149656
:100B00008D919D910D90BC91A02D248135814681C0
:100B10005781281739074A075B0718F4112341F05A
:100B20000AC082179307A407B50740F4112319F0F0
:100B300061E070E005C06FEF7FEF02C060E070E041
:100B4000CB011F910895DF93CF93CDB7DEB7E49724
:100B50000FB6F894DEBF0FBECDBF9E012F5E3F4F94
:100B60003FA32EA382EF90E099A788A797E09AA7CA
:100B7000E8A5F9A5008028A539A52F5F3F4F39A723
:100B800028A7EEA1FFA100822EA13FA12F5F3F4F1A
:100B90003FA32EA33AA531503AA78AA5882341F74F
:100BA000CE0141960E94B01A0E947614EFE5F0E063
:100BB0008081806880830E948F1B8130E1F782E012
:100BC0000E94521B0E948F1B888B8889E82FF0E0BF
:100BD000FDA3ECA32CA13DA12230310509F4BDC039
:100BE0008CA19DA18330910554F4ECA1FDA1309717
:100BF000C9F02CA13DA121303105C9F0DCCF8CA179
:100C00009DA18430910509F4B2C0ECA1FDA1E430AE
:100C1000F1050CF4A7C02CA13DA12530310509F444
:100C2000DAC0C9CF0E949F0886E0888BC4CF0E949B
:100C3000741980E690E00E94F0182CE630E081E024
:100C400060E0A9010E945B190E9492138F8780E0E7
:100C500090E0AAEFB3E48B879C87AD87BE876B8556
:100C60007C858D859E8520E030E04AEF54E40E942B
:100C70001F02DC01CB018F839887A987BA876F8118
:100C8000788589859A8520E030E040E85FE30E941E
:100C9000790388232CF481E090E09E838D833FC00C
:100CA0006F81788589859A8520E03FEF4FE757E48B
:100CB0000E94190318164CF56B857C858D859E85E1
:100CC00020E030E040E251E40E941F02DC01CB0151
:100CD000BC01CD010E944900DC01CB019E838D83C4
:100CE0000FC088EC90E09C838B838B819C81019763
:100CF000F1F79C838B838D819E8101979E838D83E9
:100D00008D819E81009769F714C06F8178858985F0
:100D10009A850E944900DC01CB019E838D838D81E1
:100D20009E819A83898389819A810197F1F79A83B9
:100D300089838F858B3221F08F858D3209F084CFA6
:100D400083E00E94521B0E948F1B8430E1F78F8545
:100D50000E94521B86E0888B2ECF0E94D60786E029
:100D6000888B29CF0E94D60786E0888B24CF81E02C
:100D700080930601CE0148969CA78BA7ECEEF0E08D
:100D8000FEA7EDA7F6E0FFA7EDA5FEA500802DA527
:100D90003EA52F5F3F4F3EA72DA7EBA5FCA50082E8
:100DA0002BA53CA52F5F3F4F3CA72BA73FA531505C
:100DB0003FA78FA5882341F78FE197E00E94381A5B
:100DC000CE0148960E94A319809106018130E1F37B
:100DD00086E0888BF0CE81E080930601FE017E964E
:100DE000F9ABE8AB26EE30E03BAB2AAB36E03CABF0
:100DF000EAA9FBA900802AA93BA92F5F3F4F3BAB83
:100E00002AABE8A9F9A9008228A939A92F5F3F4F89
:100E100039AB28AB3CA931503CAB8CA9882341F7B6
:100E200086E897E00E94381ACE014E960E94A319D8
:100E3000809106018130E1F386E0888BBCCEDF93A0
:100E4000CF93CDB7DEB72B970FB6F894DEBF0FBEAA
:100E5000CDBF809107018F5F8093070180910701CB
:100E6000813059F5CE01019698878F83E9EFF0E044
:100E7000FA87E987F6E0FB87E985FA8500808985AE
:100E80009A8501969A878987EF81F88500828F81FC
:100E90009885019698878F839B8591509B87EB85DA
:100EA000EE2351F7CE0101960E94A3190E947419F6
:100EB0008EE790E00E94F01820C0809107018630F4
:100EC00039F40E9474198DE890E00E94F01815C062
:100ED00080910701873039F40E9474198AE990E003
:100EE0000E94F0180AC0809107018C3031F41092F2
:100EF0000701109206010E94151A2B960FB6F8945E
:100F0000DEBF0FBECDBFCF91DF910895DF93CF93AA
:100F1000CDB7DEB72B970FB6F894DEBF0FBECDBFAF
:100F2000809108018F5F80930801809108018130D2
:100F300051F5CE01019698878F83EFEFF0E0FA87A5
:100F4000E987F6E0FB87E985FA85008089859A853F
:100F500001969A878987EF81F88500828F8198852D
:100F6000019698878F839B8591509B87EB85EE2315
:100F700051F7CE0101960E94A3190E94741987EAC5
:100F800090E00E94F01880910801873031F41092AF
:100F90000801109206010E94151A2B960FB6F894BC
:100FA000DEBF0FBECDBFCF91DF9108950F931F938A
:100FB000DF93CF93CDB7DEB765970FB6F894DEBF5A
:100FC0000FBECDBF0E94741981EB90E00E94F01813
:100FD00081E060E00E941919188A84C08889082F6E
:100FE00010E00E949213282FCE014196FC01E00FE1
:100FF000F11F20838AE20E94011780E090E0AAEFAF
:10100000B3E48B879C87AD87BE876B857C858D8598
:101010009E8520E030E04AEF54E40E941F02DC018C
:10102000CB018F839887A987BA876F817885898557
:101030009A8520E030E040E85FE30E94790388234E
:101040002CF481E090E09E838D833FC06F81788592
:1010500089859A8520E03FEF4FE757E40E94190306
:1010600018164CF56B857C858D859E8520E030E0DB
:1010700040E251E40E941F02DC01CB01BC01CD0122
:101080000E944900DC01CB019E838D830FC088EC58
:1010900090E09C838B838B819C810197F1F79C83EB
:1010A0008B838D819E8101979E838D838D819E810F
:1010B000009769F714C06F81788589859A850E94A9
:1010C0004900DC01CB019E838D838D819E819A83B3
:1010D000898389819A810197F1F79A838983888925
:1010E0008F5F888B8889853008F478CF0E949213AF
:1010F0008D33E1F71F8615C083E00E94521B0E94CA
:101100008F1B8430E1F78F85282F30E0CE01419688
:10111000FC01E20FF31F80810E94521B8F858F5FBD
:101120008F878F85853040F365960FB6F894DEBFC4
:101130000FBECDBFCF91DF911F910F9108950F93F7
:101140001F93DF93CF93CDB7DEB7E7970FB6F89431
:10115000DEBF0FBECDBF0E94741981EB90E00E94EC
:10116000F01881E060E00E9419191DA684C08DA5C9
:10117000082F10E00E949213282FCE018E96FC01BA
:10118000E00FF11F20838AE20E94011780E090E0C7
:10119000AAEFB3E48FA398A7A9A7BAA76FA178A5D0
:1011A00089A59AA520E030E04AEF54E40E941F028E
:1011B000DC01CB018BA39CA3ADA3BEA36BA17CA13F
:1011C0008DA19EA120E030E040E85FE30E9479031A
:1011D00088232CF481E090E09AA389A33FC06BA1FF
:1011E0007CA18DA19EA120E03FEF4FE757E40E9434
:1011F000190318164CF56FA178A589A59AA520E0CA
:1012000030E040E251E40E941F02DC01CB01BC014E
:10121000CD010E944900DC01CB019AA389A30FC034
:1012200088EC90E098A38F8F8F8D98A10197F1F7AC
:1012300098A38F8F89A19AA101979AA389A389A1C5
:101240009AA1009769F714C06BA17CA18DA19EA102
:101250000E944900DC01CB019AA389A389A19AA12C
:101260009E8F8D8F8D8D9E8D0197F1F79E8F8D8F27
:101270008DA58F5F8DA78DA5853008F478CF0E944E
:1012800092138D33E1F70E94741981EC90E00E9473
:10129000F01881E060E00E94191982ED90E00E9450
:1012A000F01880E090E0AAEFB3E4898F9A8FAB8FBB
:1012B000BC8F698D7A8D8B8D9C8D20E030E04AEF5C
:1012C00054E40E941F02DC01CB018D8B9E8BAF8BFF
:1012D000B88F6D897E898F89988D20E030E040E855
:1012E0005FE30E94790388232CF481E090E09C8BDB
:1012F0008B8B3FC06D897E898F89988D20E03FEF71
:101300004FE757E40E94190318164CF5698D7A8D42
:101310008B8D9C8D20E030E040E251E40E941F0262
:10132000DC01CB01BC01CD010E944900DC01CB01F5
:101330009C8B8B8B0FC088EC90E09A8B898B898972
:101340009A890197F1F79A8B898B8B899C890197F0
:101350009C8B8B8B8B899C89009769F714C06D8956
:101360007E898F89988D0E944900DC01CB019C8B7E
:101370008B8B8B899C89988B8F878F859889019718
:10138000F1F7988B8F871CA684C08CA5082F10E0DE
:101390000E949213282FCE01C396FC01E00FF11F8B
:1013A00020838AE20E94011780E090E0AAEFB3E474
:1013B0008B879C87AD87BE876B857C858D859E8559
:1013C00020E030E04AEF54E40E941F02DC01CB0130
:1013D0008F839887A987BA876F81788589859A8551
:1013E00020E030E040E85FE30E94790388232CF49A
:1013F00081E090E09E838D833FC06F8178858985F1
:101400009A8520E03FEF4FE757E40E941903181632
:101410004CF56B857C858D859E8520E030E040E233
:1014200051E40E941F02DC01CB01BC01CD010E94EE
:101430004900DC01CB019E838D830FC088EC90E0D6
:101440009C838B838B819C810197F1F79C838B8399
:101450008D819E8101979E838D838D819E810097D2
:1014600069F714C06F81788589859A850E94490043
:10147000DC01CB019E838D838D819E819A8389833C
:1014800089819A810197F1F79A8389838CA58F5F6F
:101490008CA78CA5853008F478CF0E9492138D33E9
:1014A000E1F71BA627C083E00E94521B0E948F1BFE
:1014B0008430E1F78BA5282F30E0CE018E96FC0119
:1014C000E20FF31F80810E94521B83E00E94521B97
:1014D0000E948F1B8430E1F78BA5282F30E0CE01CE
:1014E000C396FC01E20FF31F80810E94521B8BA563
:1014F0008F5F8BA78BA58530B0F2E7960FB6F89477
:10150000DEBF0FBECDBFCF91DF911F910F91089528
:10151000DF93CF93CDB7DEB72D970FB6F894DEBF2C
:101520000FBECDBF89836A834B838A81883008F0E0
:10153000A9C28981843008F0A5C28981282F30E0B2
:101540003D872C878C859D858130910509F4B8C035
:101550002C853D85223031052CF48C859D850097A6
:1015600071F090C22C853D852230310509F449C1C6
:101570008C859D858330910509F4E4C183C28A81FD
:10158000282F30E03B872A878A859B858330910509
:1015900009F451C02A853B85243031057CF48A85C5
:1015A0009B858130910571F12A853B85223031057B
:1015B000ACF58A859B850097D1F064C22A853B856E
:1015C0002530310509F452C08A859B858530910507
:1015D0000CF43FC02A853B852630310509F454C000
:1015E0008A859B858730910509F45DC04BC2EAE38B
:1015F000F0E08B818170982F917080818E7F892B94
:10160000808340C2EAE3F0E08B8181708170982F83
:10161000990F80818D7F892B808334C2EAE3F0E0CB
:101620008B8181708170982F990F990F80818B7FAA
:10163000892B808327C2EAE3F0E08B81817081707F
:10164000982F990F990F990F8081877F892B80831D
:1016500019C2EAE3F0E08B8181708170982F929536
:10166000907F80818F7E892B80830CC2EAE3F0E03B
:101670008B8181708170982F9295990F907E8081D7
:101680008F7D892B8083FEC1EAE3F0E08B8181703E
:101690008170982F9295990F990F907C80818F7B04
:1016A000892B8083EFC1EAE3F0E08B818170982F72
:1016B00097959927979580818F77892B8083E2C1B1
:1016C0008A81282F30E0398728878885998583305B
:1016D000910509F451C028853985243031057CF401
:1016E000888599858130910571F128853985223069
:1016F0003105ACF5888599850097D1F0C3C128855F
:1017000039852530310509F452C0888599858530A1
:1017100091050CF43FC0288539852630310509F440
:1017200054C0888599858730910509F45DC0AAC1A8
:10173000E7E3F0E08B818170982F917080818E7F3C
:10174000892B80839FC1E7E3F0E08B8181708170FA
:10175000982F990F80818D7F892B808393C1E7E338
:10176000F0E08B8181708170982F990F990F8081A3
:101770008B7F892B808386C1E7E3F0E08B818170CA
:101780008170982F990F990F990F8081877F892BEE
:10179000808378C1E7E3F0E08B8181708170982FBE
:1017A0009295907F80818F7E892B80836BC1E7E348
:1017B000F0E08B8181708170982F9295990F907EC7
:1017C00080818F7D892B80835DC1E7E3F0E08B8191
:1017D00081708170982F9295990F990F907C8081DC
:1017E0008F7B892B80834EC1E7E3F0E08B81817092
:1017F000982F97959927979580818F77892B80834C
:1018000041C18A81282F30E03F832E838E819F81C2
:101810008330910509F451C02E813F812430310578
:101820007CF48E819F818130910571F12E813F8101
:1018300022303105ACF58E819F810097D1F022C115
:101840002E813F812530310509F452C08E819F8160
:10185000853091050CF43FC02E813F812630310543
:1018600009F454C08E819F818730910509F45DC0D1
:1018700009C1E4E3F0E08B818170982F9170808141
:101880008E7F892B8083FEC0E4E3F0E08B81817042
:101890008170982F990F80818D7F892B8083F2C072
:1018A000E4E3F0E08B8181708170982F990F990F9C
:1018B00080818B7F892B8083E5C0E4E3F0E08B811E
:1018C00081708170982F990F990F990F8081877F70
:1018D000892B8083D7C0E4E3F0E08B818170817035
:1018E000982F9295907F80818F7E892B8083CAC0AC
:1018F000E4E3F0E08B8181708170982F9295990FCD
:10190000907E80818F7D892B8083BCC0E4E3F0E0F2
:101910008B8181708170982F9295990F990F907C8F
:1019200080818F7B892B8083ADC0E4E3F0E08B81E5
:101930008170982F97959927979580818F77892B1C
:101940008083A0C08A81282F30E03D832C838C8146
:101950009D818330910509F451C02C813D81243053
:1019600031057CF48C819D818130910571F12C8150
:101970003D8122303105ACF58C819D810097D1F0FD
:1019800081C02C813D812530310509F452C08C8104
:101990009D81853091050CF43FC02C813D8126301E
:1019A000310509F454C08C819D818730910509F47B
:1019B0005DC068C0E1E3F0E08B818170982F917089
:1019C00080818E7F892B80835DC0E1E3F0E08B8195
:1019D00081708170982F990F80818D7F892B8083F2
:1019E00051C0E1E3F0E08B8181708170982F990FF5
:1019F000990F80818B7F892B808344C0E1E3F0E0E5
:101A00008B8181708170982F990F990F990F808128
:101A1000877F892B808336C0E1E3F0E08B81817082
:101A20008170982F9295907F80818F7E892B808303
:101A300029C0E1E3F0E08B8181708170982F92954D
:101A4000990F907E80818F7D892B80831BC0E1E37D
:101A5000F0E08B8181708170982F9295990F990F8A
:101A6000907C80818F7B892B80830CC0E1E3F0E048
:101A70008B818170982F97959927979580818F7783
:101A8000892B80832D960FB6F894DEBF0FBECDBF95
:101A9000CF91DF910895DF93CF93CDB7DEB72D9728
:101AA0000FB6F894DEBF0FBECDBF89836A834B8328
:101AB0008A81883008F0A9C28981843008F0A5C2E3
:101AC0008981282F30E03D872C878C859D8581304A
:101AD000910509F4B8C02C853D85223031052CF4E0
:101AE0008C859D85009771F090C22C853D852230B4
:101AF000310509F449C18C859D858330910509F430
:101B0000E4C183C28A81282F30E03B872A878A85F7
:101B10009B858330910509F451C02A853B8524308B
:101B200031057CF48A859B858130910571F12A8588
:101B30003B8522303105ACF58A859B850097D1F035
:101B400064C22A853B852530310509F452C08A8557
:101B50009B85853091050CF43FC02A853B85263056
:101B6000310509F454C08A859B858730910509F4B5
:101B70005DC04BC2EBE3F0E08B818170982F9170D8
:101B800080818E7F892B808340C2EBE3F0E08B81E4
:101B900081708170982F990F80818D7F892B808330
:101BA00034C2EBE3F0E08B8181708170982F990F44
:101BB000990F80818B7F892B808327C2EBE3F0E034
:101BC0008B8181708170982F990F990F990F808167
:101BD000877F892B808319C2EBE3F0E08B818170D2
:101BE0008170982F9295907F80818F7E892B808342
:101BF0000CC2EBE3F0E08B8181708170982F92959D
:101C0000990F907E80818F7D892B8083FEC1EBE3CD
:101C1000F0E08B8181708170982F9295990F990FC8
:101C2000907C80818F7B892B8083EFC1EBE3F0E098
:101C30008B818170982F97959927979580818F77C1
:101C4000892B8083E2C18A81282F30E03987288759
:101C5000888599858330910509F451C02885398597
:101C6000243031057CF4888599858130910571F1A6
:101C70002885398522303105ACF58885998500970E
:101C8000D1F0C3C1288539852530310509F452C00A
:101C900088859985853091050CF43FC02885398564
:101CA0002630310509F454C088859985873091051F
:101CB00009F45DC0AAC1E8E3F0E08B818170982F40
:101CC000917080818E7F892B80839FC1E8E3F0E053
:101CD0008B8181708170982F990F80818D7F892BE6
:101CE000808393C1E8E3F0E08B8181708170982F4D
:101CF000990F990F80818B7F892B808386C1E8E3C0
:101D0000F0E08B8181708170982F990F990F990F56
:101D10008081877F892B808378C1E8E3F0E08B8125
:101D200081708170982F9295907F80818F7E892B12
:101D300080836BC1E8E3F0E08B8181708170982F24
:101D40009295990F907E80818F7D892B80835DC1D4
:101D5000E8E3F0E08B8181708170982F9295990F64
:101D6000990F907C80818F7B892B80834EC1E8E323
:101D7000F0E08B818170982F9795992797958081B6
:101D80008F77892B808341C18A81282F30E03F8360
:101D90002E838E819F818330910509F451C02E815D
:101DA0003F81243031057CF48E819F818130910503
:101DB00071F12E813F8122303105ACF58E819F81FA
:101DC0000097D1F022C12E813F812530310509F4E1
:101DD00052C08E819F81853091050CF43FC02E81C9
:101DE0003F812630310509F454C08E819F818730B0
:101DF000910509F45DC009C1E5E3F0E08B818170D4
:101E0000982F917080818E7F892B8083FEC0E5E3BF
:101E1000F0E08B8181708170982F990F80818D7F88
:101E2000892B8083F2C0E5E3F0E08B8181708170C3
:101E3000982F990F990F80818B7F892B8083E5C024
:101E4000E5E3F0E08B8181708170982F990F990FF5
:101E5000990F8081877F892B8083D7C0E5E3F0E0ED
:101E60008B8181708170982F9295907F80818F7E79
:101E7000892B8083CAC0E5E3F0E08B81817081709B
:101E8000982F9295990F907E80818F7D892B8083EA
:101E9000BCC0E5E3F0E08B8181708170982F929552
:101EA000990F990F907C80818F7B892B8083ADC0A7
:101EB000E5E3F0E08B818170982F979599279795AE
:101EC00080818F77892B8083A0C08A81282F30E082
:101ED0003D832C838C819D818330910509F451C011
:101EE0002C813D81243031057CF48C819D818130B1
:101EF000910571F12C813D8122303105ACF58C8149
:101F00009D810097D1F081C02C813D812530310524
:101F100009F452C08C819D81853091050CF43FC03D
:101F20002C813D812630310509F454C08C819D817E
:101F30008730910509F45DC068C0E2E3F0E08B8171
:101F40008170982F917080818E7F892B80835DC0F6
:101F5000E2E3F0E08B8181708170982F990F80818E
:101F60008D7F892B808351C0E2E3F0E08B8181700B
:101F70008170982F990F990F80818B7F892B808397
:101F800044C0E2E3F0E08B8181708170982F990F5B
:101F9000990F990F8081877F892B808336C0E2E378
:101FA000F0E08B8181708170982F9295907F808175
:101FB0008F7E892B808329C0E2E3F0E08B818170E2
:101FC0008170982F9295990F907E80818F7D892BBB
:101FD00080831BC0E2E3F0E08B8181708170982FD9
:101FE0009295990F990F907C80818F7B892B8083AC
:101FF0000CC0E2E3F0E08B818170982F97959927D0
:10200000979580818F77892B80832D960FB6F894D2
:10201000DEBF0FBECDBFCF91DF910895DF93CF9389
:10202000CDB7DEB72D970FB6F894DEBF0FBECDBF8C
:102030008A836B8319828B81883008F0F9C18A8189
:10204000843008F0F5C18A81282F30E03D872C8745
:102050008C859D858130910509F48CC02C853D854A
:10206000223031052CF48C859D85009771F0E0C1FC
:102070002C853D852230310509F4F1C08C859D8584
:102080008330910509F460C1D3C18B81282F30E0E2
:102090003B872A878A859B858330910509F43EC05A
:1020A0002A853B85243031057CF48A859B858130E7
:1020B000910529F12A853B85223031053CF58A8539
:1020C0009B850097B1F0B4C12A853B852530310549
:1020D000B1F18A859B85853091054CF12A853B8538
:1020E00026303105A9F18A859B8587309105D1F18C
:1020F0009FC1E9E3F0E080818170898399C1E9E3C0
:10210000F0E0808186958170898392C1E9E3F0E0F7
:10211000808186958695817089838AC1E9E3F0E0A4
:1021200080818695869586958170898381C1E9E352
:10213000F0E0808182958F708170898379C1E9E3B5
:10214000F0E080818295869587708170898370C167
:10215000E9E3F0E0808182958695869583708170B1
:10216000898366C1E9E3F0E08081881F8827881FA2
:1021700089835EC18B81282F30E039872887888545
:1021800099858330910509F43EC02885398524302E
:1021900031057CF4888599858130910529F1288560
:1021A0003985223031053CF5888599850097B1F055
:1021B0003FC12885398525303105B1F1888599855C
:1021C000853091054CF12885398526303105A9F1F6
:1021D0008885998587309105D1F12AC1E6E3F0E041
:1021E00080818170898324C1E6E3F0E08081869557
:1021F000817089831DC1E6E3F0E080818695869534
:102200008170898315C1E6E3F0E08081869586952B
:102210008695817089830CC1E6E3F0E08081829528
:102220008F708170898304C1E6E3F0E0808182953C
:102230008695877081708983FBC0E6E3F0E080813A
:10224000829586958695837081708983F1C0E6E3D7
:10225000F0E08081881F8827881F8983E9C08B81EF
:10226000282F30E03F832E838E819F81833091051C
:1022700009F43EC02E813F81243031057CF48E81EB
:102280009F818130910529F12E813F8122303105D6
:102290003CF58E819F810097B1F0CAC02E813F81AD
:1022A00025303105B1F18E819F81853091054CF14A
:1022B0002E813F8126303105A9F18E819F818730A3
:1022C0009105D1F1B5C0E3E3F0E0808181708983AD
:1022D000AFC0E3E3F0E08081869581708983A8C078
:1022E000E3E3F0E080818695869581708983A0C0C4
:1022F000E3E3F0E0808186958695869581708983F9
:1023000097C0E3E3F0E0808182958F7081708983CC
:102310008FC0E3E3F0E080818295869587708170BD
:10232000898386C0E3E3F0E0808182958695869577
:102330008370817089837CC0E3E3F0E08081881F33
:102340008827881F898374C08B81282F30E03D83C4
:102350002C838C819D818330910509F43EC02C81B2
:102360003D81243031057CF48C819D818130910543
:1023700029F12C813D81223031053CF58C819D81F4
:102380000097B1F055C02C813D8125303105B1F168
:102390008C819D81853091054CF12C813D812630C9
:1023A0003105A9F18C819D8187309105D1F140C023
:1023B000E0E3F0E08081817089833AC0E0E3F0E0FF
:1023C000808186958170898333C0E0E3F0E080816D
:1023D00086958695817089832BC0E0E3F0E080814B
:1023E0008695869586958170898322C0E0E3F0E02A
:1023F000808182958F70817089831AC0E0E3F0E05C
:1024000080818295869587708170898311C0E0E311
:10241000F0E08081829586958695837081708983AE
:1024200007C0E0E3F0E08081881F8827881F898348
:1024300089812D960FB6F894DEBF0FBECDBFCF9128
:10244000DF910895DF93CF9300D000D0CDB7DEB7F2
:1024500089836A838981843090F58981282F30E0CF
:102460003C832B838B819C8181309105D1F02B8122
:102470003C81223031052CF48B819C81009761F0E6
:102480001EC02B813C812230310581F08B819C81E3
:102490008330910581F013C0EAE3F0E08A81808304
:1024A0000EC0E7E3F0E08A81808309C0E4E3F0E056
:1024B0008A81808304C0E1E3F0E08A8180830F9009
:1024C0000F900F900F90CF91DF910895DF93CF93EE
:1024D00000D000D0CDB7DEB789836A83898184308C
:1024E00090F58981282F30E03C832B838B819C8160
:1024F00081309105D1F02B813C81223031052CF4C3
:102500008B819C81009761F01EC02B813C81223021
:10251000310581F08B819C818330910581F013C05E
:10252000EBE3F0E08A8180830EC0E8E3F0E08A818B
:10253000808309C0E5E3F0E08A81808304C0E2E3A0
:10254000F0E08A8180830F900F900F900F90CF91D1
:10255000DF910895DF93CF9300D000D0CDB7DEB7E1
:102560008A8319828A81843090F58A81282F30E00D
:102570003C832B838B819C8181309105D1F02B8111
:102580003C81223031052CF48B819C81009761F0D5
:102590001EC02B813C812230310581F08B819C81D2
:1025A0008330910581F013C0E9E3F0E080818983F5
:1025B0000EC0E6E3F0E08081898309C0E3E3F0E048
:1025C0008081898304C0E0E3F0E080818983898190
:1025D0000F900F900F900F90CF91DF910895DF93A0
:1025E000CF9300D000D0CDB7DEB789838981282F63
:1025F00030E03C832B838B819C818830910509F4EA
:102600006FC02B813C812930310554F58B819C8131
:102610008430910509F458C02B813C812530310567
:1026200094F48B819C818230910509F447C02B8101
:102630003C81233031050CF044C08B819C8181307A
:102640009105C9F166C02B813C812630310509F422
:1026500041C08B819C81873091050CF03EC037C012
:102660002B813C812C30310509F446C08B819C8143
:102670008D3091055CF42B813C812A303105B1F11C
:102680008B819C818B309105A4F52DC02B813C81E1
:102690002E303105B1F18B819C818E3091057CF11A
:1026A0002B813C812F30310571F18B819C818031F0
:1026B000910561F12EC097E09A832CC028E02A830F
:1026C00029C039E03A8326C08FE28A8323C094E090
:1026D0009A8320C025E02A831DC036E03A831AC0C1
:1026E0008AE28A8317C091E09A8314C022E02A8389
:1026F00011C033E03A830EC08DE28A830BC01A8288
:1027000009C01A8207C09DE39A8304C02BE22A8382
:1027100001C01A828A810F900F900F900F90CF9175
:10272000DF910895DF93CF93CDB7DEB760970FB6F3
:10273000F894DEBF0FBECDBF80E060E040E00E94B5
:10274000880A80E061E040E00E94880A80E062E060
:1027500040E00E94880A80E063E040E00E94880A2E
:1027600080E064E040E00E94880A80E065E040E0AC
:102770000E94880A80E066E040E00E94880A80E0CB
:1027800067E040E00E94880A1F86ABC080E06F854A
:1027900041E00E94880A80E06F8540E00E944B0D76
:1027A000188A22C08889982F9C5F80E0692F0E9438
:1027B0000E108823B1F48F85882F90E0880F991F21
:1027C000880F991F982F8889890F8F5F0E94EF12B9
:1027D00060960FB6F894DEBF0FBECDBFCF91DF91EC
:1027E000089588898F5F888B88898430D8F280E04B
:1027F0006F8540E00E94880A80E090E0A0E2B1E4AA
:102800008B879C87AD87BE876B857C858D859E85F4
:1028100020E030E04AEF54E40E941F02DC01CB01CB
:102820008F839887A987BA876F81788589859A85EC
:1028300020E030E040E85FE30E94790388232CF435
:1028400081E090E09E838D833FC06F81788589858C
:102850009A8520E03FEF4FE757E40E9419031816CE
:102860004CF56B857C858D859E8520E030E040E2CF
:1028700051E40E941F02DC01CB01BC01CD010E948A
:102880004900DC01CB019E838D830FC088EC90E072
:102890009C838B838B819C810197F1F79C838B8335
:1028A0008D819E8101979E838D838D819E8100976E
:1028B00069F714C06F81788589859A850E944900DF
:1028C000DC01CB019E838D838D819E819A838983D8
:1028D00089819A810197F1F79A8389838F858F5F28
:1028E0008F878F85843008F451CF4ECFDF93CF93FD
:1028F000CDB7DEB72E970FB6F894DEBF0FBECDBFB3
:1029000083E066E041E00E94880A83E067E041E0FE
:102910000E94880A80E090E0A0EAB1E48B879C875F
:10292000AD87BE876B857C858D859E8520E030E0F8
:102930004AEF54E40E941F02DC01CB018F83988789
:10294000A987BA876F81788589859A8520E030E0EC
:1029500040E85FE30E94790388232CF481E090E053
:102960009E838D833FC06F81788589859A8520E01D
:102970003FEF4FE757E40E94190318164CF56B859B
:102980007C858D859E8520E030E040E251E40E9408
:102990001F02DC01CB01BC01CD010E944900DC011A
:1029A000CB019E838D830FC088EC90E09C838B834A
:1029B0008B819C810197F1F79C838B838D819E8114
:1029C00001979E838D838D819E81009769F714C046
:1029D0006F81788589859A850E944900DC01CB0149
:1029E0009E838D838D819E819A83898389819A813B
:1029F0000197F1F79A83898382E06FEF0E94221298
:102A000088E30E9412158CE00E94121581E00E945A
:102A100012152E960FB6F894DEBF0FBECDBFCF9124
:102A2000DF910895DF93CF93CDB7DEB7E9970FB667
:102A3000F894DEBF0FBECDBF89AF83E066E040E013
:102A40000E944B0D80E090E0A0E8BFE38DAB9EAB11
:102A5000AFABB8AF6DA97EA98FA998AD20E030E0EB
:102A60004AEF54E40E941F02DC01CB0189AB9AAB10
:102A7000ABABBCAB69A97AA98BA99CA920E030E0DB
:102A800040E85FE30E94790388232CF481E090E022
:102A900098AB8FA73FC069A97AA98BA99CA920E010
:102AA0003FEF4FE757E40E94190318164CF56DA944
:102AB0007EA98FA998AD20E030E040E251E40E9469
:102AC0001F02DC01CB01BC01CD010E944900DC01E9
:102AD000CB0198AB8FA70FC088EC90E09EA78DA785
:102AE0008DA59EA50197F1F79EA78DA78FA598A903
:102AF000019798AB8FA78FA598A9009769F714C085
:102B000069A97AA98BA99CA90E944900DC01CB0183
:102B100098AB8FA78FA598A99CA78BA78BA59CA5E1
:102B20000197F1F79CA78BA783E067E041E00E9443
:102B30004B0D80E090E0A0E8BFE38FA398A7A9A782
:102B4000BAA76FA178A589A59AA520E030E04AEF41
:102B500054E40E941F02DC01CB018BA39CA3ADA314
:102B6000BEA36BA17CA18DA19EA120E030E040E836
:102B70005FE30E94790388232CF481E090E09AA31C
:102B800089A33FC06BA17CA18DA19EA120E03FEF56
:102B90004FE757E40E94190318164CF56FA178A56A
:102BA00089A59AA520E030E040E251E40E941F028E
:102BB000DC01CB01BC01CD010E944900DC01CB014D
:102BC0009AA389A30FC088EC90E098A38F8F8F8D74
:102BD00098A10197F1F798A38F8F89A19AA10197E6
:102BE0009AA389A389A19AA1009769F714C06BA140
:102BF0007CA18DA19EA10E944900DC01CB019AA37A
:102C000089A389A19AA19E8F8D8F8D8D9E8D01970D
:102C1000F1F79E8F8D8F82E069AD0E94661280E091
:102C200090E0A0E8BFE3898F9A8FAB8FBC8F698D4E
:102C30007A8D8B8D9C8D20E030E04AEF54E40E9429
:102C40001F02DC01CB018D8B9E8BAF8BB88F6D8902
:102C50007E898F89988D20E030E040E85FE30E9414
:102C6000790388232CF481E090E09C8B8B8B3FC010
:102C70006D897E898F89988D20E03FEF4FE757E47B
:102C80000E94190318164CF5698D7A8D8B8D9C8DD9
:102C900020E030E040E251E40E941F02DC01CB0161
:102CA000BC01CD010E944900DC01CB019C8B8B8BC8
:102CB0000FC088EC90E09A8B898B89899A8901975B
:102CC000F1F79A8B898B8B899C8901979C8B8B8BD5
:102CD0008B899C89009769F714C06D897E898F89DB
:102CE000988D0E944900DC01CB019C8B8B8B8B89DA
:102CF0009C89988B8F878F8598890197F1F7988B9E
:102D00008F8783E067E040E00E944B0D80E090E019
:102D1000A0E8BFE38B879C87AD87BE876B857C85EA
:102D20008D859E8520E030E04AEF54E40E941F022A
:102D3000DC01CB018F839887A987BA876F8178855B
:102D400089859A8520E030E040E85FE30E947903BE
:102D500088232CF481E090E09E838D833FC06F81B7
:102D6000788589859A8520E03FEF4FE757E40E94F8
:102D7000190318164CF56B857C858D859E8520E0A2
:102D800030E040E251E40E941F02DC01CB01BC01B3
:102D9000CD010E944900DC01CB019E838D830FC0D1
:102DA00088EC90E09C838B838B819C810197F1F769
:102DB0009C838B838D819E8101979E838D838D81E2
:102DC0009E81009769F714C06F81788589859A85FF
:102DD0000E944900DC01CB019E838D838D819E8101
:102DE0009A83898389819A810197F1F79A838983EC
:102DF000E9960FB6F894DEBF0FBECDBFCF91DF913D
:102E00000895DF93CF93CDB7DEB7E9970FB6F89467
:102E1000DEBF0FBECDBF89AF83E066E041E00E9418
:102E20004B0D80E090E0A0E8BFE38DAB9EABAFAB75
:102E3000B8AF6DA97EA98FA998AD20E030E04AEF28
:102E400054E40E941F02DC01CB0189AB9AABABAB0F
:102E5000BCAB69A97AA98BA99CA920E030E040E825
:102E60005FE30E94790388232CF481E090E098AB23
:102E70008FA73FC069A97AA98BA99CA920E03FEF41
:102E80004FE757E40E94190318164CF56DA97EA967
:102E90008FA998AD20E030E040E251E40E941F028B
:102EA000DC01CB01BC01CD010E944900DC01CB015A
:102EB00098AB8FA70FC088EC90E09EA78DA78DA53B
:102EC0009EA50197F1F79EA78DA78FA598A90197B9
:102ED00098AB8FA78FA598A9009769F714C069A927
:102EE0007AA98BA99CA90E944900DC01CB0198AB6F
:102EF0008FA78FA598A99CA78BA78BA59CA50197A9
:102F0000F1F79CA78BA783E067E041E00E944B0D9F
:102F100080E090E0A0E8BFE38FA398A7A9A7BAA795
:102F20006FA178A589A59AA520E030E04AEF54E486
:102F30000E941F02DC01CB018BA39CA3ADA3BEA307
:102F40006BA17CA18DA19EA120E030E040E85FE371
:102F50000E94790388232CF481E090E09AA389A34E
:102F60003FC06BA17CA18DA19EA120E03FEF4FE768
:102F700057E40E94190318164CF56FA178A589A58E
:102F80009AA520E030E040E251E40E941F02DC01FB
:102F9000CB01BC01CD010E944900DC01CB019AA309
:102FA00089A30FC088EC90E098A38F8F8F8D98A194
:102FB0000197F1F798A38F8F89A19AA101979AA3FE
:102FC00089A389A19AA1009769F714C06BA17CA17C
:102FD0008DA19EA10E944900DC01CB019AA389A387
:102FE00089A19AA19E8F8D8F8D8D9E8D0197F1F76E
:102FF0009E8F8D8F82E069AD0E94661280E090E026
:10300000A0E8BFE3898F9A8FAB8FBC8F698D7A8DD3
:103010008B8D9C8D20E030E04AEF54E40E941F022B
:10302000DC01CB018D8B9E8BAF8BB88F6D897E8938
:103030008F89988D20E030E040E85FE30E947903BB
:1030400088232CF481E090E09C8B8B8B3FC06D89B2
:103050007E898F89988D20E03FEF4FE757E40E94EB
:10306000190318164CF5698D7A8D8B8D9C8D20E097
:1030700030E040E251E40E941F02DC01CB01BC01C0
:10308000CD010E944900DC01CB019C8B8B8B0FC0D2
:1030900088EC90E09A8B898B89899A890197F1F75E
:1030A0009A8B898B8B899C8901979C8B8B8B8B89C5
:1030B0009C89009769F714C06D897E898F89988DE6
:1030C0000E944900DC01CB019C8B8B8B8B899C89F6
:1030D000988B8F878F8598890197F1F7988B8F87C9
:1030E00083E067E040E00E944B0D80E090E0A0E8C4
:1030F000BFE38B879C87AD87BE876B857C858D857D
:103100009E8520E030E04AEF54E40E941F02DC017B
:10311000CB018F839887A987BA876F817885898546
:103120009A8520E030E040E85FE30E94790388233D
:103130002CF481E090E09E838D833FC06F81788581
:1031400089859A8520E03FEF4FE757E40E941903F5
:1031500018164CF56B857C858D859E8520E030E0CA
:1031600040E251E40E941F02DC01CB01BC01CD0111
:103170000E944900DC01CB019E838D830FC088EC47
:1031800090E09C838B838B819C810197F1F79C83DA
:103190008B838D819E8101979E838D838D819E81FE
:1031A000009769F714C06F81788589859A850E9498
:1031B0004900DC01CB019E838D838D819E819A83A2
:1031C000898389819A810197F1F79A838983E996A6
:1031D0000FB6F894DEBF0FBECDBFCF91DF9108953B
:1031E000DF93CF9300D00F92CDB7DEB79B838A8356
:1031F00019820EC08981282F30E08A819B81FC01D1
:10320000E20FF31F80810E94011789818F5F8983FC
:103210008981282F30E08A819B81FC01E20FF31F16
:103220008081882339F70F900F900F90CF91DF9115
:103230000895DF93CF9300D000D00F92CDB7DEB7C3
:103240008A836B838A81282F30E03D832C838C8195
:103250009D8181309105C1F02C813D812230310565
:103260002CF48C819D81009761F019C02C813D81E7
:103270002230310569F08C819D818330910561F0A8
:103280000EC08B8189830BC08B81805C898307C0D2
:103290008B81805F898303C08B81805B8983898177
:1032A00080680E9412150F900F900F900F900F9052
:1032B000CF91DF910895DF93CF9300D000D0CDB7A9
:1032C000DEB789836A835C834B8389816A810E942C
:1032D00019198B819C810E94F0180F900F900F900C
:1032E0000F90CF91DF910895DF93CF93CDB7DEB7E5
:1032F00081E00E941215CF91DF910895DF93CF9363
:10330000CDB7DEB764970FB6F894DEBF0FBECDBF62
:10331000698B7A8B8B8B9C8B89899A899E012F5F15
:103320003F4FB9014AE050E00E943B1CCE0101969C
:103330000E94F01864960FB6F894DEBF0FBECDBFA2
:10334000CF91DF910895DF93CF9300D0CDB7DEB753
:103350009A838983EFE4F0E01082EEE4F0E01082DB
:10336000EFE4F0E0808188608083EFE4F0E080812A
:1033700084608083E981FA8185818823F9F4EFE410
:10338000F0E080818E7F8083EFE4F0E080818D7FAC
:103390008083EEE4F0E08081877F8083EEE4F0E0DC
:1033A00080818F7E8083E9E5F0E080818460808386
:1033B000E9E5F0E080818F7E80831DC0E981FA819C
:1033C00085818430C1F4EEE4F0E080818860808300
:1033D000AAE4B0E0E981FA818281938111969C93FD
:1033E0008E93E9E5F0E0808180618083E9E5F0E09B
:1033F00080818B7F8083AEE4B0E0EEE4F0E08081FA
:10340000982F987FE981FA818481892B8C93ACE491
:10341000B0E0E981FA818081918111969C938E932D
:103420000F900F90CF91DF910895DF93CF93CDB799
:10343000DEB7EFE4F0E01082EEE4F0E01082E9E5C0
:10344000F0E080818B7F8083E9E5F0E080818F7EF2
:103450008083ECE4F0E011821082EAE4F0E0118273
:10346000108210920A0110920901CF91DF91089504
:10347000DF93CF9300D0CDB7DEB79A83898389815C
:103480009A8190930A01809309010F900F90CF9138
:10349000DF9108951F920F920FB60F9211242F9370
:1034A0003F934F935F936F937F938F939F93AF93CC
:1034B000BF93EF93FF93DF93CF93CDB7DEB78091A8
:1034C000090190910A01009729F0E0910901F0911A
:1034D0000A010995CF91DF91FF91EF91BF91AF91D3
:1034E0009F918F917F916F915F914F913F912F911C
:1034F0000F900FBE0F901F9018951F920F920FB64E
:103500000F9211242F933F934F935F936F937F9369
:103510008F939F93AF93BF93EF93FF93DF93CF93DB
:10352000CDB7DEB78091090190910A01009729F08B
:10353000E0910901F0910A010995CF91DF91FF9186
:10354000EF91BF91AF919F918F917F916F915F911B
:103550004F913F912F910F900FBE0F901F90189594
:10356000DF93CF9300D000D0CDB7DEB79C838B83A1
:103570001A821982EBE2F0E01082EBE2F0E0808147
:1035800082608083EAE2F0E01082EAE2F0E080818B
:1035900080618083EAE2F0E0808188608083EB8153
:1035A000FC818281873051F4EAE2F0E0808184601E
:1035B0008083EB81FC8183E0828305C0EAE2F0E056
:1035C00080818B7F8083E0E4F0E01082A0E4B0E0B3
:1035D000EB81FC81818181708170982F990F990F07
:1035E000990F8C91877F892B8C93A0E4B0E0E0E465
:1035F000F0E08081282F2F7CEB81FC818081882F57
:1036000090E082959295907F9827807F9827822BD3
:103610008C93A0E4B0E0E0E4F0E08081282F297FE3
:10362000EB81FC818281882F90E0880F991F822B8B
:103630008C93EB81FC8183819481A581B681880F75
:10364000991FAA1FBB1F880F991FAA1FBB1F880F96
:10365000991FAA1FBB1F9C01AD0180E092E1AAE760
:10366000B0E0BC01CD010E94E21BDA01C901019763
:103670009A838983E0E4F0E089819A81892F9927F0
:103680008F70982F9F708081807F892B8083E9E2E3
:10369000F0E0898180830F900F900F900F90CF9171
:1036A000DF910895DF93CF930F92CDB7DEB7898373
:1036B000EBE2F0E0808180728823D1F3ECE2F0E06D
:1036C000898180830F90CF91DF910895DF93CF930D
:1036D00000D00F92CDB7DEB79B838A8319820EC0CC
:1036E0008981282F30E08A819B81FC01E20FF31F42
:1036F00080810E94521B89818F5F89838981282F55
:1037000030E08A819B81FC01E20FF31F80818823D6
:1037100039F70F900F900F90CF91DF910895DF93BD
:10372000CF93CDB7DEB7EBE2F0E0808180788823DD
:10373000D1F3ECE2F0E08081CF91DF9108950F9317
:103740001F93DF93CF9300D00F92CDB7DEB79B834B
:103750008A8319828981282F30E08A819B818C019C
:10376000020F131F0E948F1BF80180830FC08981F5
:103770008F5F89838981282F30E08A819B818C012A
:10378000020F131F0E948F1BF80180838981282F4D
:1037900030E08A819B81FC01E20FF31F808183323C
:1037A00031F78981282F30E08A819B81FC01E20F6B
:1037B000F31F10820F900F900F90CF91DF911F9108
:1037C0000F910895A1E21A2EAA1BBB1BFD010DC08B
:1037D000AA1FBB1FEE1FFF1FA217B307E407F507C1
:1037E00020F0A21BB30BE40BF50B661F771F881F9D
:1037F000991F1A9469F760957095809590959B0133
:10380000AC01BD01CF0108952F923F924F925F927C
:103810006F927F928F929F92AF92BF92CF92DF92E0
:10382000EF92FF920F931F93CF93DF93CDB7DEB745
:10383000CA1BDB0B0FB6F894DEBF0FBECDBF0994D9
:103840002A88398848885F846E847D848C849B8430
:10385000AA84B984C884DF80EE80FD800C811B813E
:10386000AA81B981CE0FD11D0FB6F894DEBF0FBE6D
:10387000CDBFED010895FB019F01E8944230C4F0F3
:103880004532B4F44A3029F497FB1EF490958195A3
:103890009F4F642F77270E946C1C805D8A330CF049
:1038A000895D8193CB010097A1F716F45DE25193F6
:1038B0001082C9010C945C1CDC01FC01672F719122
:1038C0007723E1F7329704C07C916D937083629106
:1038D000AE17BF07C8F30895AA1BBB1B51E107C071
:1038E000AA1FBB1FA617B70710F0A61BB70B881F90
:1038F000991F5A95A9F780959095BC01CD0108951F
:04390000F894FFCF69
:103904002B3A4F70656E20446F6F72002D3A4368F6
:10391400616E67652050617373776F726400556ED2
:103924006C6F636B696E6720446F6F7200446F6FD6
:1039340072206973206F70656E004C6F636B696EE3
:103944006720446F6F72004552524F52212121214A
:1039540000506C7A20456E74657220506173733A1E
:1039640000506C7A2072652D656E746572207468DF
:10397400650073616D6520506173733A2000000027
:10398400000000000000F5FF0000050000000A0030
:1039940005040000038025000000008E5B05040080
:0639A40000000005000018
:00000001FF
